{
  "_format": "hh-sol-artifact-1",
  "contractName": "MinArtClub",
  "sourceName": "contracts/NFT.sol",
  "abi": [
    {
      "inputs": [],
      "stateMutability": "nonpayable",
      "type": "constructor"
    },
    {
      "inputs": [],
      "name": "ApprovalCallerNotOwnerNorApproved",
      "type": "error"
    },
    {
      "inputs": [],
      "name": "ApprovalQueryForNonexistentToken",
      "type": "error"
    },
    {
      "inputs": [],
      "name": "BalanceQueryForZeroAddress",
      "type": "error"
    },
    {
      "inputs": [],
      "name": "MintERC2309QuantityExceedsLimit",
      "type": "error"
    },
    {
      "inputs": [],
      "name": "MintToZeroAddress",
      "type": "error"
    },
    {
      "inputs": [],
      "name": "MintZeroQuantity",
      "type": "error"
    },
    {
      "inputs": [
        {
          "internalType": "address",
          "name": "operator",
          "type": "address"
        }
      ],
      "name": "OperatorNotAllowed",
      "type": "error"
    },
    {
      "inputs": [],
      "name": "OwnerQueryForNonexistentToken",
      "type": "error"
    },
    {
      "inputs": [],
      "name": "OwnershipNotInitializedForExtraData",
      "type": "error"
    },
    {
      "inputs": [],
      "name": "TransferCallerNotOwnerNorApproved",
      "type": "error"
    },
    {
      "inputs": [],
      "name": "TransferFromIncorrectOwner",
      "type": "error"
    },
    {
      "inputs": [],
      "name": "TransferToNonERC721ReceiverImplementer",
      "type": "error"
    },
    {
      "inputs": [],
      "name": "TransferToZeroAddress",
      "type": "error"
    },
    {
      "inputs": [],
      "name": "URIQueryForNonexistentToken",
      "type": "error"
    },
    {
      "anonymous": false,
      "inputs": [
        {
          "indexed": true,
          "internalType": "address",
          "name": "owner",
          "type": "address"
        },
        {
          "indexed": true,
          "internalType": "address",
          "name": "approved",
          "type": "address"
        },
        {
          "indexed": true,
          "internalType": "uint256",
          "name": "tokenId",
          "type": "uint256"
        }
      ],
      "name": "Approval",
      "type": "event"
    },
    {
      "anonymous": false,
      "inputs": [
        {
          "indexed": true,
          "internalType": "address",
          "name": "owner",
          "type": "address"
        },
        {
          "indexed": true,
          "internalType": "address",
          "name": "operator",
          "type": "address"
        },
        {
          "indexed": false,
          "internalType": "bool",
          "name": "approved",
          "type": "bool"
        }
      ],
      "name": "ApprovalForAll",
      "type": "event"
    },
    {
      "anonymous": false,
      "inputs": [
        {
          "indexed": true,
          "internalType": "uint256",
          "name": "fromTokenId",
          "type": "uint256"
        },
        {
          "indexed": false,
          "internalType": "uint256",
          "name": "toTokenId",
          "type": "uint256"
        },
        {
          "indexed": true,
          "internalType": "address",
          "name": "from",
          "type": "address"
        },
        {
          "indexed": true,
          "internalType": "address",
          "name": "to",
          "type": "address"
        }
      ],
      "name": "ConsecutiveTransfer",
      "type": "event"
    },
    {
      "anonymous": false,
      "inputs": [
        {
          "indexed": true,
          "internalType": "address",
          "name": "previousOwner",
          "type": "address"
        },
        {
          "indexed": true,
          "internalType": "address",
          "name": "newOwner",
          "type": "address"
        }
      ],
      "name": "OwnershipTransferred",
      "type": "event"
    },
    {
      "anonymous": false,
      "inputs": [
        {
          "indexed": false,
          "internalType": "address",
          "name": "",
          "type": "address"
        },
        {
          "indexed": false,
          "internalType": "uint256",
          "name": "",
          "type": "uint256"
        }
      ],
      "name": "Received",
      "type": "event"
    },
    {
      "anonymous": false,
      "inputs": [
        {
          "indexed": false,
          "internalType": "address",
          "name": "",
          "type": "address"
        },
        {
          "indexed": false,
          "internalType": "uint96",
          "name": "",
          "type": "uint96"
        }
      ],
      "name": "RoyaltyFees",
      "type": "event"
    },
    {
      "anonymous": false,
      "inputs": [
        {
          "indexed": true,
          "internalType": "address",
          "name": "from",
          "type": "address"
        },
        {
          "indexed": true,
          "internalType": "address",
          "name": "to",
          "type": "address"
        },
        {
          "indexed": true,
          "internalType": "uint256",
          "name": "tokenId",
          "type": "uint256"
        }
      ],
      "name": "Transfer",
      "type": "event"
    },
    {
      "inputs": [],
      "name": "OPERATOR_FILTER_REGISTRY",
      "outputs": [
        {
          "internalType": "contract IOperatorFilterRegistry",
          "name": "",
          "type": "address"
        }
      ],
      "stateMutability": "view",
      "type": "function"
    },
    {
      "inputs": [
        {
          "internalType": "uint256",
          "name": "amount",
          "type": "uint256"
        },
        {
          "internalType": "address[]",
          "name": "_address",
          "type": "address[]"
        }
      ],
      "name": "_airdrop",
      "outputs": [],
      "stateMutability": "nonpayable",
      "type": "function"
    },
    {
      "inputs": [],
      "name": "_baseTokenEXT",
      "outputs": [
        {
          "internalType": "string",
          "name": "",
          "type": "string"
        }
      ],
      "stateMutability": "view",
      "type": "function"
    },
    {
      "inputs": [],
      "name": "_baseTokenURI",
      "outputs": [
        {
          "internalType": "string",
          "name": "",
          "type": "string"
        }
      ],
      "stateMutability": "view",
      "type": "function"
    },
    {
      "inputs": [
        {
          "internalType": "address",
          "name": "operator",
          "type": "address"
        },
        {
          "internalType": "uint256",
          "name": "tokenId",
          "type": "uint256"
        }
      ],
      "name": "approve",
      "outputs": [],
      "stateMutability": "payable",
      "type": "function"
    },
    {
      "inputs": [
        {
          "internalType": "address",
          "name": "owner",
          "type": "address"
        }
      ],
      "name": "balanceOf",
      "outputs": [
        {
          "internalType": "uint256",
          "name": "",
          "type": "uint256"
        }
      ],
      "stateMutability": "view",
      "type": "function"
    },
    {
      "inputs": [
        {
          "internalType": "string",
          "name": "_nURL",
          "type": "string"
        },
        {
          "internalType": "string",
          "name": "_nBaseExt",
          "type": "string"
        }
      ],
      "name": "changeURLParams",
      "outputs": [],
      "stateMutability": "nonpayable",
      "type": "function"
    },
    {
      "inputs": [
        {
          "internalType": "uint256",
          "name": "tokenId",
          "type": "uint256"
        }
      ],
      "name": "getApproved",
      "outputs": [
        {
          "internalType": "address",
          "name": "",
          "type": "address"
        }
      ],
      "stateMutability": "view",
      "type": "function"
    },
    {
      "inputs": [
        {
          "internalType": "address",
          "name": "owner",
          "type": "address"
        },
        {
          "internalType": "address",
          "name": "operator",
          "type": "address"
        }
      ],
      "name": "isApprovedForAll",
      "outputs": [
        {
          "internalType": "bool",
          "name": "",
          "type": "bool"
        }
      ],
      "stateMutability": "view",
      "type": "function"
    },
    {
      "inputs": [],
      "name": "maxMint",
      "outputs": [
        {
          "internalType": "uint256",
          "name": "",
          "type": "uint256"
        }
      ],
      "stateMutability": "view",
      "type": "function"
    },
    {
      "inputs": [],
      "name": "maxSupply",
      "outputs": [
        {
          "internalType": "uint256",
          "name": "",
          "type": "uint256"
        }
      ],
      "stateMutability": "view",
      "type": "function"
    },
    {
      "inputs": [],
      "name": "merkleRoot",
      "outputs": [
        {
          "internalType": "bytes32",
          "name": "",
          "type": "bytes32"
        }
      ],
      "stateMutability": "view",
      "type": "function"
    },
    {
      "inputs": [
        {
          "internalType": "uint256",
          "name": "_mintAmount",
          "type": "uint256"
        }
      ],
      "name": "mint",
      "outputs": [],
      "stateMutability": "payable",
      "type": "function"
    },
    {
      "inputs": [],
      "name": "name",
      "outputs": [
        {
          "internalType": "string",
          "name": "",
          "type": "string"
        }
      ],
      "stateMutability": "view",
      "type": "function"
    },
    {
      "inputs": [],
      "name": "notRevealedUri",
      "outputs": [
        {
          "internalType": "string",
          "name": "",
          "type": "string"
        }
      ],
      "stateMutability": "view",
      "type": "function"
    },
    {
      "inputs": [],
      "name": "owner",
      "outputs": [
        {
          "internalType": "address",
          "name": "",
          "type": "address"
        }
      ],
      "stateMutability": "view",
      "type": "function"
    },
    {
      "inputs": [
        {
          "internalType": "uint256",
          "name": "tokenId",
          "type": "uint256"
        }
      ],
      "name": "ownerOf",
      "outputs": [
        {
          "internalType": "address",
          "name": "",
          "type": "address"
        }
      ],
      "stateMutability": "view",
      "type": "function"
    },
    {
      "inputs": [],
      "name": "paused",
      "outputs": [
        {
          "internalType": "bool",
          "name": "",
          "type": "bool"
        }
      ],
      "stateMutability": "view",
      "type": "function"
    },
    {
      "inputs": [],
      "name": "perTxCap",
      "outputs": [
        {
          "internalType": "uint256",
          "name": "",
          "type": "uint256"
        }
      ],
      "stateMutability": "view",
      "type": "function"
    },
    {
      "inputs": [],
      "name": "price",
      "outputs": [
        {
          "internalType": "uint256",
          "name": "",
          "type": "uint256"
        }
      ],
      "stateMutability": "view",
      "type": "function"
    },
    {
      "inputs": [],
      "name": "renounceOwnership",
      "outputs": [],
      "stateMutability": "nonpayable",
      "type": "function"
    },
    {
      "inputs": [],
      "name": "reserved",
      "outputs": [
        {
          "internalType": "uint256",
          "name": "",
          "type": "uint256"
        }
      ],
      "stateMutability": "view",
      "type": "function"
    },
    {
      "inputs": [],
      "name": "reservedClaimed",
      "outputs": [
        {
          "internalType": "uint256",
          "name": "",
          "type": "uint256"
        }
      ],
      "stateMutability": "view",
      "type": "function"
    },
    {
      "inputs": [],
      "name": "revealed",
      "outputs": [
        {
          "internalType": "bool",
          "name": "",
          "type": "bool"
        }
      ],
      "stateMutability": "view",
      "type": "function"
    },
    {
      "inputs": [],
      "name": "royaltyAddress",
      "outputs": [
        {
          "internalType": "address",
          "name": "",
          "type": "address"
        }
      ],
      "stateMutability": "view",
      "type": "function"
    },
    {
      "inputs": [],
      "name": "royaltyFee",
      "outputs": [
        {
          "internalType": "uint96",
          "name": "",
          "type": "uint96"
        }
      ],
      "stateMutability": "view",
      "type": "function"
    },
    {
      "inputs": [
        {
          "internalType": "uint256",
          "name": "_tokenId",
          "type": "uint256"
        },
        {
          "internalType": "uint256",
          "name": "_salePrice",
          "type": "uint256"
        }
      ],
      "name": "royaltyInfo",
      "outputs": [
        {
          "internalType": "address",
          "name": "",
          "type": "address"
        },
        {
          "internalType": "uint256",
          "name": "",
          "type": "uint256"
        }
      ],
      "stateMutability": "view",
      "type": "function"
    },
    {
      "inputs": [
        {
          "internalType": "address",
          "name": "from",
          "type": "address"
        },
        {
          "internalType": "address",
          "name": "to",
          "type": "address"
        },
        {
          "internalType": "uint256",
          "name": "tokenId",
          "type": "uint256"
        }
      ],
      "name": "safeTransferFrom",
      "outputs": [],
      "stateMutability": "payable",
      "type": "function"
    },
    {
      "inputs": [
        {
          "internalType": "address",
          "name": "from",
          "type": "address"
        },
        {
          "internalType": "address",
          "name": "to",
          "type": "address"
        },
        {
          "internalType": "uint256",
          "name": "tokenId",
          "type": "uint256"
        },
        {
          "internalType": "bytes",
          "name": "data",
          "type": "bytes"
        }
      ],
      "name": "safeTransferFrom",
      "outputs": [],
      "stateMutability": "payable",
      "type": "function"
    },
    {
      "inputs": [
        {
          "internalType": "address",
          "name": "operator",
          "type": "address"
        },
        {
          "internalType": "bool",
          "name": "approved",
          "type": "bool"
        }
      ],
      "name": "setApprovalForAll",
      "outputs": [],
      "stateMutability": "nonpayable",
      "type": "function"
    },
    {
      "inputs": [
        {
          "internalType": "bytes32",
          "name": "merkleHash",
          "type": "bytes32"
        }
      ],
      "name": "setMerkleRoot",
      "outputs": [],
      "stateMutability": "nonpayable",
      "type": "function"
    },
    {
      "inputs": [
        {
          "internalType": "string",
          "name": "_notRevealedURI",
          "type": "string"
        }
      ],
      "name": "setNotRevealedURI",
      "outputs": [],
      "stateMutability": "nonpayable",
      "type": "function"
    },
    {
      "inputs": [
        {
          "internalType": "uint256",
          "name": "newPrice",
          "type": "uint256"
        }
      ],
      "name": "setPrice",
      "outputs": [],
      "stateMutability": "nonpayable",
      "type": "function"
    },
    {
      "inputs": [
        {
          "internalType": "address",
          "name": "_royaltyAddress",
          "type": "address"
        }
      ],
      "name": "setRoyaltyAddress",
      "outputs": [],
      "stateMutability": "nonpayable",
      "type": "function"
    },
    {
      "inputs": [
        {
          "internalType": "uint96",
          "name": "_feeNumerator",
          "type": "uint96"
        }
      ],
      "name": "setRoyaltyFee",
      "outputs": [],
      "stateMutability": "nonpayable",
      "type": "function"
    },
    {
      "inputs": [
        {
          "internalType": "uint256",
          "name": "newPrice",
          "type": "uint256"
        }
      ],
      "name": "setWLPrice",
      "outputs": [],
      "stateMutability": "nonpayable",
      "type": "function"
    },
    {
      "inputs": [
        {
          "internalType": "bytes4",
          "name": "interfaceId",
          "type": "bytes4"
        }
      ],
      "name": "supportsInterface",
      "outputs": [
        {
          "internalType": "bool",
          "name": "",
          "type": "bool"
        }
      ],
      "stateMutability": "view",
      "type": "function"
    },
    {
      "inputs": [],
      "name": "symbol",
      "outputs": [
        {
          "internalType": "string",
          "name": "",
          "type": "string"
        }
      ],
      "stateMutability": "view",
      "type": "function"
    },
    {
      "inputs": [],
      "name": "togglePause",
      "outputs": [],
      "stateMutability": "nonpayable",
      "type": "function"
    },
    {
      "inputs": [],
      "name": "toggleReveal",
      "outputs": [],
      "stateMutability": "nonpayable",
      "type": "function"
    },
    {
      "inputs": [],
      "name": "toggleWhiteList",
      "outputs": [],
      "stateMutability": "nonpayable",
      "type": "function"
    },
    {
      "inputs": [
        {
          "internalType": "uint256",
          "name": "tokenId",
          "type": "uint256"
        }
      ],
      "name": "tokenURI",
      "outputs": [
        {
          "internalType": "string",
          "name": "",
          "type": "string"
        }
      ],
      "stateMutability": "view",
      "type": "function"
    },
    {
      "inputs": [],
      "name": "totalSupply",
      "outputs": [
        {
          "internalType": "uint256",
          "name": "",
          "type": "uint256"
        }
      ],
      "stateMutability": "view",
      "type": "function"
    },
    {
      "inputs": [
        {
          "internalType": "address",
          "name": "from",
          "type": "address"
        },
        {
          "internalType": "address",
          "name": "to",
          "type": "address"
        },
        {
          "internalType": "uint256",
          "name": "tokenId",
          "type": "uint256"
        }
      ],
      "name": "transferFrom",
      "outputs": [],
      "stateMutability": "payable",
      "type": "function"
    },
    {
      "inputs": [
        {
          "internalType": "address",
          "name": "newOwner",
          "type": "address"
        }
      ],
      "name": "transferOwnership",
      "outputs": [],
      "stateMutability": "nonpayable",
      "type": "function"
    },
    {
      "inputs": [
        {
          "internalType": "address",
          "name": "",
          "type": "address"
        }
      ],
      "name": "userMints",
      "outputs": [
        {
          "internalType": "uint256",
          "name": "",
          "type": "uint256"
        }
      ],
      "stateMutability": "view",
      "type": "function"
    },
    {
      "inputs": [
        {
          "internalType": "address",
          "name": "",
          "type": "address"
        }
      ],
      "name": "userWLMints",
      "outputs": [
        {
          "internalType": "uint256",
          "name": "",
          "type": "uint256"
        }
      ],
      "stateMutability": "view",
      "type": "function"
    },
    {
      "inputs": [],
      "name": "whitelistMaxMint",
      "outputs": [
        {
          "internalType": "uint256",
          "name": "",
          "type": "uint256"
        }
      ],
      "stateMutability": "view",
      "type": "function"
    },
    {
      "inputs": [
        {
          "internalType": "uint256",
          "name": "_mintAmount",
          "type": "uint256"
        },
        {
          "internalType": "bytes32[]",
          "name": "merkleProof",
          "type": "bytes32[]"
        }
      ],
      "name": "whitelistMint",
      "outputs": [],
      "stateMutability": "payable",
      "type": "function"
    },
    {
      "inputs": [],
      "name": "whitelistPrice",
      "outputs": [
        {
          "internalType": "uint256",
          "name": "",
          "type": "uint256"
        }
      ],
      "stateMutability": "view",
      "type": "function"
    },
    {
      "inputs": [],
      "name": "whitelistSale",
      "outputs": [
        {
          "internalType": "bool",
          "name": "",
          "type": "bool"
        }
      ],
      "stateMutability": "view",
      "type": "function"
    },
    {
      "inputs": [],
      "name": "withdrawMoney",
      "outputs": [],
      "stateMutability": "nonpayable",
      "type": "function"
    },
    {
      "stateMutability": "payable",
      "type": "receive"
    }
  ],
  "bytecode": "0x6080604052611387600c556000600d556003600e556003600f556001601060006101000a81548160ff0219169083151502179055506000601460006101000a81548160ff0219169083151502179055506001601460016101000a81548160ff021916908315150217905550600160155560006016556102256018556000601955736c2b36bc2280f3a25f991712cdb35967a15d2d0a601a60006101000a81548173ffffffffffffffffffffffffffffffffffffffff021916908373ffffffffffffffffffffffffffffffffffffffff1602179055506103e8601a60146101000a8154816bffffffffffffffffffffffff02191690836bffffffffffffffffffffffff1602179055503480156200011457600080fd5b50733cc6cdda760b79bafa08df41ecfa224f810dceb660016040518060400160405280600c81526020017f6d696e2041727420436c756200000000000000000000000000000000000000008152506040518060400160405280600381526020017f4d414300000000000000000000000000000000000000000000000000000000008152508160029081620001a9919062000945565b508060039081620001bb919062000945565b50620001cc6200044760201b60201c565b6000819055505050620001f4620001e86200045060201b60201c565b6200045860201b60201c565b6001600b8190555060006daaeb6d7670e522a718067333cd4e73ffffffffffffffffffffffffffffffffffffffff163b1115620003f1578015620002b7576daaeb6d7670e522a718067333cd4e73ffffffffffffffffffffffffffffffffffffffff16637d3e3dbe30846040518363ffffffff1660e01b81526004016200027d92919062000a71565b600060405180830381600087803b1580156200029857600080fd5b505af1158015620002ad573d6000803e3d6000fd5b50505050620003f0565b600073ffffffffffffffffffffffffffffffffffffffff168273ffffffffffffffffffffffffffffffffffffffff161462000371576daaeb6d7670e522a718067333cd4e73ffffffffffffffffffffffffffffffffffffffff1663a0af290330846040518363ffffffff1660e01b81526004016200033792919062000a71565b600060405180830381600087803b1580156200035257600080fd5b505af115801562000367573d6000803e3d6000fd5b50505050620003ef565b6daaeb6d7670e522a718067333cd4e73ffffffffffffffffffffffffffffffffffffffff16634420e486306040518263ffffffff1660e01b8152600401620003ba919062000a9e565b600060405180830381600087803b158015620003d557600080fd5b505af1158015620003ea573d6000803e3d6000fd5b505050505b5b5b505062000441601a60009054906101000a900473ffffffffffffffffffffffffffffffffffffffff16601a60149054906101000a90046bffffffffffffffffffffffff166200051e60201b60201c565b62000bd6565b60006001905090565b600033905090565b6000600a60009054906101000a900473ffffffffffffffffffffffffffffffffffffffff16905081600a60006101000a81548173ffffffffffffffffffffffffffffffffffffffff021916908373ffffffffffffffffffffffffffffffffffffffff1602179055508173ffffffffffffffffffffffffffffffffffffffff168173ffffffffffffffffffffffffffffffffffffffff167f8be0079c531659141344cd1fd0a4f28419497f9722a3daafe3b4186f6b6457e060405160405180910390a35050565b6200052e620006c160201b60201c565b6bffffffffffffffffffffffff16816bffffffffffffffffffffffff1611156200058f576040517f08c379a0000000000000000000000000000000000000000000000000000000008152600401620005869062000b42565b60405180910390fd5b600073ffffffffffffffffffffffffffffffffffffffff168273ffffffffffffffffffffffffffffffffffffffff160362000601576040517f08c379a0000000000000000000000000000000000000000000000000000000008152600401620005f89062000bb4565b60405180910390fd5b60405180604001604052808373ffffffffffffffffffffffffffffffffffffffff168152602001826bffffffffffffffffffffffff16815250600860008201518160000160006101000a81548173ffffffffffffffffffffffffffffffffffffffff021916908373ffffffffffffffffffffffffffffffffffffffff16021790555060208201518160000160146101000a8154816bffffffffffffffffffffffff02191690836bffffffffffffffffffffffff1602179055509050505050565b6000612710905090565b600081519050919050565b7f4e487b7100000000000000000000000000000000000000000000000000000000600052604160045260246000fd5b7f4e487b7100000000000000000000000000000000000000000000000000000000600052602260045260246000fd5b600060028204905060018216806200074d57607f821691505b60208210810362000763576200076262000705565b5b50919050565b60008190508160005260206000209050919050565b60006020601f8301049050919050565b600082821b905092915050565b600060088302620007cd7fffffffffffffffffffffffffffffffffffffffffffffffffffffffffffffffff826200078e565b620007d986836200078e565b95508019841693508086168417925050509392505050565b6000819050919050565b6000819050919050565b600062000826620008206200081a84620007f1565b620007fb565b620007f1565b9050919050565b6000819050919050565b620008428362000805565b6200085a62000851826200082d565b8484546200079b565b825550505050565b600090565b6200087162000862565b6200087e81848462000837565b505050565b5b81811015620008a6576200089a60008262000867565b60018101905062000884565b5050565b601f821115620008f557620008bf8162000769565b620008ca846200077e565b81016020851015620008da578190505b620008f2620008e9856200077e565b83018262000883565b50505b505050565b600082821c905092915050565b60006200091a60001984600802620008fa565b1980831691505092915050565b600062000935838362000907565b9150826002028217905092915050565b6200095082620006cb565b67ffffffffffffffff8111156200096c576200096b620006d6565b5b62000978825462000734565b62000985828285620008aa565b600060209050601f831160018114620009bd5760008415620009a8578287015190505b620009b4858262000927565b86555062000a24565b601f198416620009cd8662000769565b60005b82811015620009f757848901518255600182019150602085019450602081019050620009d0565b8683101562000a17578489015162000a13601f89168262000907565b8355505b6001600288020188555050505b505050505050565b600073ffffffffffffffffffffffffffffffffffffffff82169050919050565b600062000a598262000a2c565b9050919050565b62000a6b8162000a4c565b82525050565b600060408201905062000a88600083018562000a60565b62000a97602083018462000a60565b9392505050565b600060208201905062000ab5600083018462000a60565b92915050565b600082825260208201905092915050565b7f455243323938313a20726f79616c7479206665652077696c6c2065786365656460008201527f2073616c65507269636500000000000000000000000000000000000000000000602082015250565b600062000b2a602a8362000abb565b915062000b378262000acc565b604082019050919050565b6000602082019050818103600083015262000b5d8162000b1b565b9050919050565b7f455243323938313a20696e76616c696420726563656976657200000000000000600082015250565b600062000b9c60198362000abb565b915062000ba98262000b64565b602082019050919050565b6000602082019050818103600083015262000bcf8162000b8d565b9050919050565b6153c58062000be66000396000f3fe6080604052600436106103035760003560e01c80637cb6475911610190578063c4ae3168116100dc578063e985e9c511610095578063f4b2965d1161006f578063f4b2965d14610b2d578063f6a5b8e614610b56578063fc1a1c3614610b7f578063fe60d12c14610baa57610343565b8063e985e9c514610a9e578063f2c4ce1e14610adb578063f2fde38b14610b0457610343565b8063c4ae31681461099b578063c87b56dd146109b2578063cfc86f7b146109ef578063d2cab05614610a1a578063d5abeb0114610a36578063df28233114610a6157610343565b8063a0712d6811610149578063ad2f852a11610123578063ad2f852a146108fe578063ad82cbea14610929578063b88d4fde14610954578063b8997a971461097057610343565b8063a0712d68146108a2578063a22cb465146108be578063ac446002146108e757610343565b80637cb64759146107a457806385fee168146107cd5780638da5cb5b146107f857806391b7f5ed1461082357806395d89b411461084c578063a035b1fe1461087757610343565b806341f434341161024f57806363430b3811610208578063715018a6116101e2578063715018a61461070e578063722e141d146107255780637501f74114610750578063783fd9221461077b57610343565b806363430b381461067d5780636352211e1461069457806370a08231146106d157610343565b806341f434341461058c57806342842e0e146105b757806348003300146105d357806351830227146106105780635b8ad4291461063b5780635c975abb1461065257610343565b806318160ddd116102bc5780632a55205a116102965780632a55205a146104cf5780632eb4a7ab1461050d57806331faafb41461053857806331ffd6f11461056157610343565b806318160ddd1461045d57806323b872dd1461048857806324510043146104a457610343565b806301ffc9a71461034857806306d254da1461038557806306fdde03146103ae578063081812fc146103d9578063081c8c4414610416578063095ea7b31461044157610343565b36610343577f88a5966d370b9919b20f3e2c13ff65706f196a4e32cc2c12bf57088f8852587433346040516103399291906137e3565b60405180910390a1005b600080fd5b34801561035457600080fd5b5061036f600480360381019061036a9190613878565b610bd5565b60405161037c91906138c0565b60405180910390f35b34801561039157600080fd5b506103ac60048036038101906103a79190613907565b610bf7565b005b3480156103ba57600080fd5b506103c3610cfe565b6040516103d091906139c4565b60405180910390f35b3480156103e557600080fd5b5061040060048036038101906103fb9190613a12565b610d90565b60405161040d9190613a3f565b60405180910390f35b34801561042257600080fd5b5061042b610e0f565b60405161043891906139c4565b60405180910390f35b61045b60048036038101906104569190613a5a565b610e9d565b005b34801561046957600080fd5b50610472610eb6565b60405161047f9190613a9a565b60405180910390f35b6104a2600480360381019061049d9190613ab5565b610ecd565b005b3480156104b057600080fd5b506104b9610f1c565b6040516104c69190613a9a565b60405180910390f35b3480156104db57600080fd5b506104f660048036038101906104f19190613b08565b610f22565b6040516105049291906137e3565b60405180910390f35b34801561051957600080fd5b5061052261110c565b60405161052f9190613b61565b60405180910390f35b34801561054457600080fd5b5061055f600480360381019061055a9190613bc0565b611112565b005b34801561056d57600080fd5b50610576611209565b60405161058391906138c0565b60405180910390f35b34801561059857600080fd5b506105a161121c565b6040516105ae9190613c4c565b60405180910390f35b6105d160048036038101906105cc9190613ab5565b61122e565b005b3480156105df57600080fd5b506105fa60048036038101906105f59190613907565b61127d565b6040516106079190613a9a565b60405180910390f35b34801561061c57600080fd5b50610625611295565b60405161063291906138c0565b60405180910390f35b34801561064757600080fd5b506106506112a8565b005b34801561065e57600080fd5b506106676112dc565b60405161067491906138c0565b60405180910390f35b34801561068957600080fd5b506106926112ef565b005b3480156106a057600080fd5b506106bb60048036038101906106b69190613a12565b611323565b6040516106c89190613a3f565b60405180910390f35b3480156106dd57600080fd5b506106f860048036038101906106f39190613907565b611335565b6040516107059190613a9a565b60405180910390f35b34801561071a57600080fd5b506107236113ed565b005b34801561073157600080fd5b5061073a611401565b6040516107479190613a9a565b60405180910390f35b34801561075c57600080fd5b50610765611407565b6040516107729190613a9a565b60405180910390f35b34801561078757600080fd5b506107a2600480360381019061079d9190613d9c565b61140d565b005b3480156107b057600080fd5b506107cb60048036038101906107c69190613e40565b611439565b005b3480156107d957600080fd5b506107e261144b565b6040516107ef91906139c4565b60405180910390f35b34801561080457600080fd5b5061080d6114d9565b60405161081a9190613a3f565b60405180910390f35b34801561082f57600080fd5b5061084a60048036038101906108459190613a12565b611503565b005b34801561085857600080fd5b50610861611515565b60405161086e91906139c4565b60405180910390f35b34801561088357600080fd5b5061088c6115a7565b6040516108999190613a9a565b60405180910390f35b6108bc60048036038101906108b79190613a12565b6115ad565b005b3480156108ca57600080fd5b506108e560048036038101906108e09190613e99565b6118a9565b005b3480156108f357600080fd5b506108fc6118c2565b005b34801561090a57600080fd5b50610913611989565b6040516109209190613a3f565b60405180910390f35b34801561093557600080fd5b5061093e6119af565b60405161094b9190613a9a565b60405180910390f35b61096e60048036038101906109699190613f7a565b6119b5565b005b34801561097c57600080fd5b50610985611a06565b604051610992919061400c565b60405180910390f35b3480156109a757600080fd5b506109b0611a24565b005b3480156109be57600080fd5b506109d960048036038101906109d49190613a12565b611a58565b6040516109e691906139c4565b60405180910390f35b3480156109fb57600080fd5b50610a04611bb1565b604051610a1191906139c4565b60405180910390f35b610a346004803603810190610a2f9190614087565b611c3f565b005b348015610a4257600080fd5b50610a4b611ff5565b604051610a589190613a9a565b60405180910390f35b348015610a6d57600080fd5b50610a886004803603810190610a839190613907565b611ffb565b604051610a959190613a9a565b60405180910390f35b348015610aaa57600080fd5b50610ac56004803603810190610ac091906140e7565b612013565b604051610ad291906138c0565b60405180910390f35b348015610ae757600080fd5b50610b026004803603810190610afd9190614127565b6120a7565b005b348015610b1057600080fd5b50610b2b6004803603810190610b269190613907565b6120c2565b005b348015610b3957600080fd5b50610b546004803603810190610b4f9190614233565b612145565b005b348015610b6257600080fd5b50610b7d6004803603810190610b789190613a12565b612269565b005b348015610b8b57600080fd5b50610b9461227b565b604051610ba19190613a9a565b60405180910390f35b348015610bb657600080fd5b50610bbf612281565b604051610bcc9190613a9a565b60405180910390f35b6000610be082612287565b80610bf05750610bef82612319565b5b9050919050565b610bff612393565b80601a60006101000a81548173ffffffffffffffffffffffffffffffffffffffff021916908373ffffffffffffffffffffffffffffffffffffffff160217905550610c86601a60009054906101000a900473ffffffffffffffffffffffffffffffffffffffff16601a60149054906101000a90046bffffffffffffffffffffffff16612411565b7fa4ed690a721df50356d49a4d13a6678d1c9187a34e4e8602f87389208c396849601a60009054906101000a900473ffffffffffffffffffffffffffffffffffffffff16601a60149054906101000a90046bffffffffffffffffffffffff16604051610cf392919061428f565b60405180910390a150565b606060028054610d0d906142e7565b80601f0160208091040260200160405190810160405280929190818152602001828054610d39906142e7565b8015610d865780601f10610d5b57610100808354040283529160200191610d86565b820191906000526020600020905b815481529060010190602001808311610d6957829003601f168201915b5050505050905090565b6000610d9b826125a6565b610dd1576040517fcf4700e400000000000000000000000000000000000000000000000000000000815260040160405180910390fd5b6006600083815260200190815260200160002060000160009054906101000a900473ffffffffffffffffffffffffffffffffffffffff169050919050565b60138054610e1c906142e7565b80601f0160208091040260200160405190810160405280929190818152602001828054610e48906142e7565b8015610e955780601f10610e6a57610100808354040283529160200191610e95565b820191906000526020600020905b815481529060010190602001808311610e7857829003601f168201915b505050505081565b81610ea781612605565b610eb18383612702565b505050565b6000610ec0612846565b6001546000540303905090565b823373ffffffffffffffffffffffffffffffffffffffff168173ffffffffffffffffffffffffffffffffffffffff1614610f0b57610f0a33612605565b5b610f1684848461284f565b50505050565b60195481565b6000806000600960008681526020019081526020016000206040518060400160405290816000820160009054906101000a900473ffffffffffffffffffffffffffffffffffffffff1673ffffffffffffffffffffffffffffffffffffffff1673ffffffffffffffffffffffffffffffffffffffff1681526020016000820160149054906101000a90046bffffffffffffffffffffffff166bffffffffffffffffffffffff166bffffffffffffffffffffffff16815250509050600073ffffffffffffffffffffffffffffffffffffffff16816000015173ffffffffffffffffffffffffffffffffffffffff16036110b75760086040518060400160405290816000820160009054906101000a900473ffffffffffffffffffffffffffffffffffffffff1673ffffffffffffffffffffffffffffffffffffffff1673ffffffffffffffffffffffffffffffffffffffff1681526020016000820160149054906101000a90046bffffffffffffffffffffffff166bffffffffffffffffffffffff166bffffffffffffffffffffffff168152505090505b60006110c1612b71565b6bffffffffffffffffffffffff1682602001516bffffffffffffffffffffffff16866110ed9190614347565b6110f791906143b8565b90508160000151819350935050509250929050565b60175481565b61111a612393565b80601a60146101000a8154816bffffffffffffffffffffffff02191690836bffffffffffffffffffffffff160217905550611191601a60009054906101000a900473ffffffffffffffffffffffffffffffffffffffff16601a60149054906101000a90046bffffffffffffffffffffffff16612411565b7fa4ed690a721df50356d49a4d13a6678d1c9187a34e4e8602f87389208c396849601a60009054906101000a900473ffffffffffffffffffffffffffffffffffffffff16601a60149054906101000a90046bffffffffffffffffffffffff166040516111fe92919061428f565b60405180910390a150565b601460019054906101000a900460ff1681565b6daaeb6d7670e522a718067333cd4e81565b823373ffffffffffffffffffffffffffffffffffffffff168173ffffffffffffffffffffffffffffffffffffffff161461126c5761126b33612605565b5b611277848484612b7b565b50505050565b601b6020528060005260406000206000915090505481565b601460009054906101000a900460ff1681565b6112b0612393565b601460009054906101000a900460ff1615601460006101000a81548160ff021916908315150217905550565b601060009054906101000a900460ff1681565b6112f7612393565b601460019054906101000a900460ff1615601460016101000a81548160ff021916908315150217905550565b600061132e82612b9b565b9050919050565b60008073ffffffffffffffffffffffffffffffffffffffff168273ffffffffffffffffffffffffffffffffffffffff160361139c576040517f8f4eb60400000000000000000000000000000000000000000000000000000000815260040160405180910390fd5b67ffffffffffffffff600560008473ffffffffffffffffffffffffffffffffffffffff1673ffffffffffffffffffffffffffffffffffffffff16815260200190815260200160002054169050919050565b6113f5612393565b6113ff6000612c67565b565b60155481565b600f5481565b611415612393565b8160119081611424919061458b565b508060129081611434919061458b565b505050565b611441612393565b8060178190555050565b60128054611458906142e7565b80601f0160208091040260200160405190810160405280929190818152602001828054611484906142e7565b80156114d15780601f106114a6576101008083540402835291602001916114d1565b820191906000526020600020905b8154815290600101906020018083116114b457829003601f168201915b505050505081565b6000600a60009054906101000a900473ffffffffffffffffffffffffffffffffffffffff16905090565b61150b612393565b80600d8190555050565b606060038054611524906142e7565b80601f0160208091040260200160405190810160405280929190818152602001828054611550906142e7565b801561159d5780601f106115725761010080835404028352916020019161159d565b820191906000526020600020905b81548152906001019060200180831161158057829003601f168201915b5050505050905090565b600d5481565b6115b5612d2d565b3373ffffffffffffffffffffffffffffffffffffffff163273ffffffffffffffffffffffffffffffffffffffff1614611623576040517f08c379a000000000000000000000000000000000000000000000000000000000815260040161161a906146a9565b60405180910390fd5b601060009054906101000a900460ff1615611673576040517f08c379a000000000000000000000000000000000000000000000000000000000815260040161166a90614715565b60405180910390fd5b601460019054906101000a900460ff16156116c3576040517f08c379a00000000000000000000000000000000000000000000000000000000081526004016116ba906147a7565b60405180910390fd5b600e54811115611708576040517f08c379a00000000000000000000000000000000000000000000000000000000081526004016116ff90614813565b60405180910390fd5b80600d546117169190614347565b341015611758576040517f08c379a000000000000000000000000000000000000000000000000000000000815260040161174f9061487f565b60405180910390fd5b600f5481601c60003373ffffffffffffffffffffffffffffffffffffffff1673ffffffffffffffffffffffffffffffffffffffff168152602001908152602001600020546117a6919061489f565b11156117e7576040517f08c379a00000000000000000000000000000000000000000000000000000000081526004016117de9061491f565b60405180910390fd5b600c54816117f3610eb6565b6117fd919061489f565b111561183e576040517f08c379a0000000000000000000000000000000000000000000000000000000008152600401611835906149d7565b60405180910390fd5b6118483382612d7c565b80601c60003373ffffffffffffffffffffffffffffffffffffffff1673ffffffffffffffffffffffffffffffffffffffff1681526020019081526020016000206000828254611897919061489f565b925050819055506118a6612d9a565b50565b816118b381612605565b6118bd8383612da4565b505050565b6118ca612393565b6118d2612d2d565b60003373ffffffffffffffffffffffffffffffffffffffff16476040516118f890614a28565b60006040518083038185875af1925050503d8060008114611935576040519150601f19603f3d011682016040523d82523d6000602084013e61193a565b606091505b505090508061197e576040517f08c379a000000000000000000000000000000000000000000000000000000000815260040161197590614a89565b60405180910390fd5b50611987612d9a565b565b601a60009054906101000a900473ffffffffffffffffffffffffffffffffffffffff1681565b600e5481565b833373ffffffffffffffffffffffffffffffffffffffff168173ffffffffffffffffffffffffffffffffffffffff16146119f3576119f233612605565b5b6119ff85858585612eaf565b5050505050565b601a60149054906101000a90046bffffffffffffffffffffffff1681565b611a2c612393565b601060009054906101000a900460ff1615601060006101000a81548160ff021916908315150217905550565b6060611a63826125a6565b611aa2576040517f08c379a0000000000000000000000000000000000000000000000000000000008152600401611a9990614b1b565b60405180910390fd5b60001515601460009054906101000a900460ff16151503611b4f5760138054611aca906142e7565b80601f0160208091040260200160405190810160405280929190818152602001828054611af6906142e7565b8015611b435780601f10611b1857610100808354040283529160200191611b43565b820191906000526020600020905b815481529060010190602001808311611b2657829003601f168201915b50505050509050611bac565b6000611b59612f22565b90506000815111611b795760405180602001604052806000815250611ba8565b6011611b8484612fb4565b6012604051602001611b9893929190614bfa565b6040516020818303038152906040525b9150505b919050565b60118054611bbe906142e7565b80601f0160208091040260200160405190810160405280929190818152602001828054611bea906142e7565b8015611c375780601f10611c0c57610100808354040283529160200191611c37565b820191906000526020600020905b815481529060010190602001808311611c1a57829003601f168201915b505050505081565b611c47612d2d565b3373ffffffffffffffffffffffffffffffffffffffff163273ffffffffffffffffffffffffffffffffffffffff1614611cb5576040517f08c379a0000000000000000000000000000000000000000000000000000000008152600401611cac906146a9565b60405180910390fd5b601060009054906101000a900460ff1615611d05576040517f08c379a0000000000000000000000000000000000000000000000000000000008152600401611cfc90614715565b60405180910390fd5b601460019054906101000a900460ff16611d54576040517f08c379a0000000000000000000000000000000000000000000000000000000008152600401611d4b90614c9d565b60405180910390fd5b601554831115611d99576040517f08c379a0000000000000000000000000000000000000000000000000000000008152600401611d9090614d09565b60405180910390fd5b82601654611da79190614347565b341015611de9576040517f08c379a0000000000000000000000000000000000000000000000000000000008152600401611de09061487f565b60405180910390fd5b600c5483611df5610eb6565b611dff919061489f565b1115611e40576040517f08c379a0000000000000000000000000000000000000000000000000000000008152600401611e37906149d7565b60405180910390fd5b60155483601b60003373ffffffffffffffffffffffffffffffffffffffff1673ffffffffffffffffffffffffffffffffffffffff16815260200190815260200160002054611e8e919061489f565b1115611ecf576040517f08c379a0000000000000000000000000000000000000000000000000000000008152600401611ec690614d9b565b60405180910390fd5b600033604051602001611ee29190614e03565b604051602081830303815290604052805190602001209050611f48838380806020026020016040519081016040528093929190818152602001838360200280828437600081840152601f19601f8201169050808301925050505050505060175483613082565b611f87576040517f08c379a0000000000000000000000000000000000000000000000000000000008152600401611f7e90614e6a565b60405180910390fd5b611f913385612d7c565b83601b60003373ffffffffffffffffffffffffffffffffffffffff1673ffffffffffffffffffffffffffffffffffffffff1681526020019081526020016000206000828254611fe0919061489f565b9250508190555050611ff0612d9a565b505050565b600c5481565b601c6020528060005260406000206000915090505481565b6000600760008473ffffffffffffffffffffffffffffffffffffffff1673ffffffffffffffffffffffffffffffffffffffff16815260200190815260200160002060008373ffffffffffffffffffffffffffffffffffffffff1673ffffffffffffffffffffffffffffffffffffffff16815260200190815260200160002060009054906101000a900460ff16905092915050565b6120af612393565b80601390816120be919061458b565b5050565b6120ca612393565b600073ffffffffffffffffffffffffffffffffffffffff168173ffffffffffffffffffffffffffffffffffffffff1603612139576040517f08c379a000000000000000000000000000000000000000000000000000000000815260040161213090614efc565b60405180910390fd5b61214281612c67565b50565b61214d612393565b600082825161215c9190614347565b9050600c548161216a610eb6565b612174919061489f565b11156121b5576040517f08c379a00000000000000000000000000000000000000000000000000000000081526004016121ac90614f68565b60405180910390fd5b601854601954826121c6919061489f565b1115612207576040517f08c379a00000000000000000000000000000000000000000000000000000000081526004016121fe90614fd4565b60405180910390fd5b60005b825181101561224a5761223783828151811061222957612228614ff4565b5b602002602001015185612d7c565b808061224290615023565b91505061220a565b50806019600082825461225d919061489f565b92505081905550505050565b612271612393565b8060168190555050565b60165481565b60185481565b60006301ffc9a760e01b827bffffffffffffffffffffffffffffffffffffffffffffffffffffffff191614806122e257506380ac58cd60e01b827bffffffffffffffffffffffffffffffffffffffffffffffffffffffff1916145b806123125750635b5e139f60e01b827bffffffffffffffffffffffffffffffffffffffffffffffffffffffff1916145b9050919050565b60007f2a55205a000000000000000000000000000000000000000000000000000000007bffffffffffffffffffffffffffffffffffffffffffffffffffffffff1916827bffffffffffffffffffffffffffffffffffffffffffffffffffffffff1916148061238c575061238b82613099565b5b9050919050565b61239b613103565b73ffffffffffffffffffffffffffffffffffffffff166123b96114d9565b73ffffffffffffffffffffffffffffffffffffffff161461240f576040517f08c379a0000000000000000000000000000000000000000000000000000000008152600401612406906150b7565b60405180910390fd5b565b612419612b71565b6bffffffffffffffffffffffff16816bffffffffffffffffffffffff161115612477576040517f08c379a000000000000000000000000000000000000000000000000000000000815260040161246e90615149565b60405180910390fd5b600073ffffffffffffffffffffffffffffffffffffffff168273ffffffffffffffffffffffffffffffffffffffff16036124e6576040517f08c379a00000000000000000000000000000000000000000000000000000000081526004016124dd906151b5565b60405180910390fd5b60405180604001604052808373ffffffffffffffffffffffffffffffffffffffff168152602001826bffffffffffffffffffffffff16815250600860008201518160000160006101000a81548173ffffffffffffffffffffffffffffffffffffffff021916908373ffffffffffffffffffffffffffffffffffffffff16021790555060208201518160000160146101000a8154816bffffffffffffffffffffffff02191690836bffffffffffffffffffffffff1602179055509050505050565b6000816125b1612846565b111580156125c0575060005482105b80156125fe575060007c0100000000000000000000000000000000000000000000000000000000600460008581526020019081526020016000205416145b9050919050565b60006daaeb6d7670e522a718067333cd4e73ffffffffffffffffffffffffffffffffffffffff163b11156126ff576daaeb6d7670e522a718067333cd4e73ffffffffffffffffffffffffffffffffffffffff1663c617113430836040518363ffffffff1660e01b815260040161267c9291906151d5565b602060405180830381865afa158015612699573d6000803e3d6000fd5b505050506040513d601f19601f820116820180604052508101906126bd9190615213565b6126fe57806040517fede71dcc0000000000000000000000000000000000000000000000000000000081526004016126f59190613a3f565b60405180910390fd5b5b50565b600061270d82611323565b90508073ffffffffffffffffffffffffffffffffffffffff1661272e61310b565b73ffffffffffffffffffffffffffffffffffffffff16146127915761275a8161275561310b565b612013565b612790576040517fcfb3b94200000000000000000000000000000000000000000000000000000000815260040160405180910390fd5b5b826006600084815260200190815260200160002060000160006101000a81548173ffffffffffffffffffffffffffffffffffffffff021916908373ffffffffffffffffffffffffffffffffffffffff160217905550818373ffffffffffffffffffffffffffffffffffffffff168273ffffffffffffffffffffffffffffffffffffffff167f8c5be1e5ebec7d5bd14f71427d1e84f3dd0314c0f7b2291e5b200ac8c7c3b92560405160405180910390a4505050565b60006001905090565b600061285a82612b9b565b90508373ffffffffffffffffffffffffffffffffffffffff168173ffffffffffffffffffffffffffffffffffffffff16146128c1576040517fa114810000000000000000000000000000000000000000000000000000000000815260040160405180910390fd5b6000806128cd84613113565b915091506128e381876128de61310b565b61313a565b61292f576128f8866128f361310b565b612013565b61292e576040517f59c896be00000000000000000000000000000000000000000000000000000000815260040160405180910390fd5b5b600073ffffffffffffffffffffffffffffffffffffffff168573ffffffffffffffffffffffffffffffffffffffff1603612995576040517fea553b3400000000000000000000000000000000000000000000000000000000815260040160405180910390fd5b6129a2868686600161317e565b80156129ad57600082555b600560008773ffffffffffffffffffffffffffffffffffffffff1673ffffffffffffffffffffffffffffffffffffffff168152602001908152602001600020600081546001900391905081905550600560008673ffffffffffffffffffffffffffffffffffffffff1673ffffffffffffffffffffffffffffffffffffffff1681526020019081526020016000206000815460010191905081905550612a7b85612a57888887613184565b7c0200000000000000000000000000000000000000000000000000000000176131ac565b600460008681526020019081526020016000208190555060007c0200000000000000000000000000000000000000000000000000000000841603612b015760006001850190506000600460008381526020019081526020016000205403612aff576000548114612afe578360046000838152602001908152602001600020819055505b5b505b838573ffffffffffffffffffffffffffffffffffffffff168773ffffffffffffffffffffffffffffffffffffffff167fddf252ad1be2c89b69c2b068fc378daa952ba7f163c4a11628f55a4df523b3ef60405160405180910390a4612b6986868660016131d7565b505050505050565b6000612710905090565b612b96838383604051806020016040528060008152506119b5565b505050565b60008082905080612baa612846565b11612c3057600054811015612c2f5760006004600083815260200190815260200160002054905060007c0100000000000000000000000000000000000000000000000000000000821603612c2d575b60008103612c23576004600083600190039350838152602001908152602001600020549050612bf9565b8092505050612c62565b505b5b6040517fdf2d9b4200000000000000000000000000000000000000000000000000000000815260040160405180910390fd5b919050565b6000600a60009054906101000a900473ffffffffffffffffffffffffffffffffffffffff16905081600a60006101000a81548173ffffffffffffffffffffffffffffffffffffffff021916908373ffffffffffffffffffffffffffffffffffffffff1602179055508173ffffffffffffffffffffffffffffffffffffffff168173ffffffffffffffffffffffffffffffffffffffff167f8be0079c531659141344cd1fd0a4f28419497f9722a3daafe3b4186f6b6457e060405160405180910390a35050565b6002600b5403612d72576040517f08c379a0000000000000000000000000000000000000000000000000000000008152600401612d699061528c565b60405180910390fd5b6002600b81905550565b612d968282604051806020016040528060008152506131dd565b5050565b6001600b81905550565b8060076000612db161310b565b73ffffffffffffffffffffffffffffffffffffffff1673ffffffffffffffffffffffffffffffffffffffff16815260200190815260200160002060008473ffffffffffffffffffffffffffffffffffffffff1673ffffffffffffffffffffffffffffffffffffffff16815260200190815260200160002060006101000a81548160ff0219169083151502179055508173ffffffffffffffffffffffffffffffffffffffff16612e5e61310b565b73ffffffffffffffffffffffffffffffffffffffff167f17307eab39ab6107e8899845ad3d59bd9653f200f220920489ca2b5937696c3183604051612ea391906138c0565b60405180910390a35050565b612eba848484610ecd565b60008373ffffffffffffffffffffffffffffffffffffffff163b14612f1c57612ee58484848461327a565b612f1b576040517fd1a57ed600000000000000000000000000000000000000000000000000000000815260040160405180910390fd5b5b50505050565b606060118054612f31906142e7565b80601f0160208091040260200160405190810160405280929190818152602001828054612f5d906142e7565b8015612faa5780601f10612f7f57610100808354040283529160200191612faa565b820191906000526020600020905b815481529060010190602001808311612f8d57829003601f168201915b5050505050905090565b606060006001612fc3846133ca565b01905060008167ffffffffffffffff811115612fe257612fe1613c71565b5b6040519080825280601f01601f1916602001820160405280156130145781602001600182028036833780820191505090505b509050600082602001820190505b600115613077578080600190039150507f3031323334353637383961626364656600000000000000000000000000000000600a86061a8153600a858161306b5761306a614389565b5b04945060008503613022575b819350505050919050565b60008261308f858461351d565b1490509392505050565b60007f01ffc9a7000000000000000000000000000000000000000000000000000000007bffffffffffffffffffffffffffffffffffffffffffffffffffffffff1916827bffffffffffffffffffffffffffffffffffffffffffffffffffffffff1916149050919050565b600033905090565b600033905090565b60008060006006600085815260200190815260200160002090508092508254915050915091565b600073ffffffffffffffffffffffffffffffffffffffff8316925073ffffffffffffffffffffffffffffffffffffffff821691508382148383141790509392505050565b50505050565b60008060e883901c905060e861319b868684613573565b62ffffff16901b9150509392505050565b600073ffffffffffffffffffffffffffffffffffffffff83169250814260a01b178317905092915050565b50505050565b6131e7838361357c565b60008373ffffffffffffffffffffffffffffffffffffffff163b1461327557600080549050600083820390505b613227600086838060010194508661327a565b61325d576040517fd1a57ed600000000000000000000000000000000000000000000000000000000815260040160405180910390fd5b81811061321457816000541461327257600080fd5b50505b505050565b60008373ffffffffffffffffffffffffffffffffffffffff1663150b7a026132a061310b565b8786866040518563ffffffff1660e01b81526004016132c29493929190615301565b6020604051808303816000875af19250505080156132fe57506040513d601f19601f820116820180604052508101906132fb9190615362565b60015b613377573d806000811461332e576040519150601f19603f3d011682016040523d82523d6000602084013e613333565b606091505b50600081510361336f576040517fd1a57ed600000000000000000000000000000000000000000000000000000000815260040160405180910390fd5b805181602001fd5b63150b7a0260e01b7bffffffffffffffffffffffffffffffffffffffffffffffffffffffff1916817bffffffffffffffffffffffffffffffffffffffffffffffffffffffff191614915050949350505050565b600080600090507a184f03e93ff9f4daa797ed6e38ed64bf6a1f0100000000000000008310613428577a184f03e93ff9f4daa797ed6e38ed64bf6a1f010000000000000000838161341e5761341d614389565b5b0492506040810190505b6d04ee2d6d415b85acef81000000008310613465576d04ee2d6d415b85acef8100000000838161345b5761345a614389565b5b0492506020810190505b662386f26fc10000831061349457662386f26fc10000838161348a57613489614389565b5b0492506010810190505b6305f5e10083106134bd576305f5e10083816134b3576134b2614389565b5b0492506008810190505b61271083106134e25761271083816134d8576134d7614389565b5b0492506004810190505b6064831061350557606483816134fb576134fa614389565b5b0492506002810190505b600a8310613514576001810190505b80915050919050565b60008082905060005b8451811015613568576135538286838151811061354657613545614ff4565b5b6020026020010151613737565b9150808061356090615023565b915050613526565b508091505092915050565b60009392505050565b600080549050600082036135bc576040517fb562e8dd00000000000000000000000000000000000000000000000000000000815260040160405180910390fd5b6135c9600084838561317e565b600160406001901b178202600560008573ffffffffffffffffffffffffffffffffffffffff1673ffffffffffffffffffffffffffffffffffffffff16815260200190815260200160002060008282540192505081905550613640836136316000866000613184565b61363a85613762565b176131ac565b6004600083815260200190815260200160002081905550600080838301905073ffffffffffffffffffffffffffffffffffffffff85169150828260007fddf252ad1be2c89b69c2b068fc378daa952ba7f163c4a11628f55a4df523b3ef600080a4600183015b8181146136e157808360007fddf252ad1be2c89b69c2b068fc378daa952ba7f163c4a11628f55a4df523b3ef600080a46001810190506136a6565b506000820361371c576040517f2e07630000000000000000000000000000000000000000000000000000000000815260040160405180910390fd5b80600081905550505061373260008483856131d7565b505050565b600081831061374f5761374a8284613772565b61375a565b6137598383613772565b5b905092915050565b60006001821460e11b9050919050565b600082600052816020526040600020905092915050565b600073ffffffffffffffffffffffffffffffffffffffff82169050919050565b60006137b482613789565b9050919050565b6137c4816137a9565b82525050565b6000819050919050565b6137dd816137ca565b82525050565b60006040820190506137f860008301856137bb565b61380560208301846137d4565b9392505050565b6000604051905090565b600080fd5b600080fd5b60007fffffffff0000000000000000000000000000000000000000000000000000000082169050919050565b61385581613820565b811461386057600080fd5b50565b6000813590506138728161384c565b92915050565b60006020828403121561388e5761388d613816565b5b600061389c84828501613863565b91505092915050565b60008115159050919050565b6138ba816138a5565b82525050565b60006020820190506138d560008301846138b1565b92915050565b6138e4816137a9565b81146138ef57600080fd5b50565b600081359050613901816138db565b92915050565b60006020828403121561391d5761391c613816565b5b600061392b848285016138f2565b91505092915050565b600081519050919050565b600082825260208201905092915050565b60005b8381101561396e578082015181840152602081019050613953565b60008484015250505050565b6000601f19601f8301169050919050565b600061399682613934565b6139a0818561393f565b93506139b0818560208601613950565b6139b98161397a565b840191505092915050565b600060208201905081810360008301526139de818461398b565b905092915050565b6139ef816137ca565b81146139fa57600080fd5b50565b600081359050613a0c816139e6565b92915050565b600060208284031215613a2857613a27613816565b5b6000613a36848285016139fd565b91505092915050565b6000602082019050613a5460008301846137bb565b92915050565b60008060408385031215613a7157613a70613816565b5b6000613a7f858286016138f2565b9250506020613a90858286016139fd565b9150509250929050565b6000602082019050613aaf60008301846137d4565b92915050565b600080600060608486031215613ace57613acd613816565b5b6000613adc868287016138f2565b9350506020613aed868287016138f2565b9250506040613afe868287016139fd565b9150509250925092565b60008060408385031215613b1f57613b1e613816565b5b6000613b2d858286016139fd565b9250506020613b3e858286016139fd565b9150509250929050565b6000819050919050565b613b5b81613b48565b82525050565b6000602082019050613b766000830184613b52565b92915050565b60006bffffffffffffffffffffffff82169050919050565b613b9d81613b7c565b8114613ba857600080fd5b50565b600081359050613bba81613b94565b92915050565b600060208284031215613bd657613bd5613816565b5b6000613be484828501613bab565b91505092915050565b6000819050919050565b6000613c12613c0d613c0884613789565b613bed565b613789565b9050919050565b6000613c2482613bf7565b9050919050565b6000613c3682613c19565b9050919050565b613c4681613c2b565b82525050565b6000602082019050613c616000830184613c3d565b92915050565b600080fd5b600080fd5b7f4e487b7100000000000000000000000000000000000000000000000000000000600052604160045260246000fd5b613ca98261397a565b810181811067ffffffffffffffff82111715613cc857613cc7613c71565b5b80604052505050565b6000613cdb61380c565b9050613ce78282613ca0565b919050565b600067ffffffffffffffff821115613d0757613d06613c71565b5b613d108261397a565b9050602081019050919050565b82818337600083830152505050565b6000613d3f613d3a84613cec565b613cd1565b905082815260208101848484011115613d5b57613d5a613c6c565b5b613d66848285613d1d565b509392505050565b600082601f830112613d8357613d82613c67565b5b8135613d93848260208601613d2c565b91505092915050565b60008060408385031215613db357613db2613816565b5b600083013567ffffffffffffffff811115613dd157613dd061381b565b5b613ddd85828601613d6e565b925050602083013567ffffffffffffffff811115613dfe57613dfd61381b565b5b613e0a85828601613d6e565b9150509250929050565b613e1d81613b48565b8114613e2857600080fd5b50565b600081359050613e3a81613e14565b92915050565b600060208284031215613e5657613e55613816565b5b6000613e6484828501613e2b565b91505092915050565b613e76816138a5565b8114613e8157600080fd5b50565b600081359050613e9381613e6d565b92915050565b60008060408385031215613eb057613eaf613816565b5b6000613ebe858286016138f2565b9250506020613ecf85828601613e84565b9150509250929050565b600067ffffffffffffffff821115613ef457613ef3613c71565b5b613efd8261397a565b9050602081019050919050565b6000613f1d613f1884613ed9565b613cd1565b905082815260208101848484011115613f3957613f38613c6c565b5b613f44848285613d1d565b509392505050565b600082601f830112613f6157613f60613c67565b5b8135613f71848260208601613f0a565b91505092915050565b60008060008060808587031215613f9457613f93613816565b5b6000613fa2878288016138f2565b9450506020613fb3878288016138f2565b9350506040613fc4878288016139fd565b925050606085013567ffffffffffffffff811115613fe557613fe461381b565b5b613ff187828801613f4c565b91505092959194509250565b61400681613b7c565b82525050565b60006020820190506140216000830184613ffd565b92915050565b600080fd5b600080fd5b60008083601f84011261404757614046613c67565b5b8235905067ffffffffffffffff81111561406457614063614027565b5b6020830191508360208202830111156140805761407f61402c565b5b9250929050565b6000806000604084860312156140a05761409f613816565b5b60006140ae868287016139fd565b935050602084013567ffffffffffffffff8111156140cf576140ce61381b565b5b6140db86828701614031565b92509250509250925092565b600080604083850312156140fe576140fd613816565b5b600061410c858286016138f2565b925050602061411d858286016138f2565b9150509250929050565b60006020828403121561413d5761413c613816565b5b600082013567ffffffffffffffff81111561415b5761415a61381b565b5b61416784828501613d6e565b91505092915050565b600067ffffffffffffffff82111561418b5761418a613c71565b5b602082029050602081019050919050565b60006141af6141aa84614170565b613cd1565b905080838252602082019050602084028301858111156141d2576141d161402c565b5b835b818110156141fb57806141e788826138f2565b8452602084019350506020810190506141d4565b5050509392505050565b600082601f83011261421a57614219613c67565b5b813561422a84826020860161419c565b91505092915050565b6000806040838503121561424a57614249613816565b5b6000614258858286016139fd565b925050602083013567ffffffffffffffff8111156142795761427861381b565b5b61428585828601614205565b9150509250929050565b60006040820190506142a460008301856137bb565b6142b16020830184613ffd565b9392505050565b7f4e487b7100000000000000000000000000000000000000000000000000000000600052602260045260246000fd5b600060028204905060018216806142ff57607f821691505b602082108103614312576143116142b8565b5b50919050565b7f4e487b7100000000000000000000000000000000000000000000000000000000600052601160045260246000fd5b6000614352826137ca565b915061435d836137ca565b925082820261436b816137ca565b9150828204841483151761438257614381614318565b5b5092915050565b7f4e487b7100000000000000000000000000000000000000000000000000000000600052601260045260246000fd5b60006143c3826137ca565b91506143ce836137ca565b9250826143de576143dd614389565b5b828204905092915050565b60008190508160005260206000209050919050565b60006020601f8301049050919050565b600082821b905092915050565b60006008830261444b7fffffffffffffffffffffffffffffffffffffffffffffffffffffffffffffffff8261440e565b614455868361440e565b95508019841693508086168417925050509392505050565b600061448861448361447e846137ca565b613bed565b6137ca565b9050919050565b6000819050919050565b6144a28361446d565b6144b66144ae8261448f565b84845461441b565b825550505050565b600090565b6144cb6144be565b6144d6818484614499565b505050565b5b818110156144fa576144ef6000826144c3565b6001810190506144dc565b5050565b601f82111561453f57614510816143e9565b614519846143fe565b81016020851015614528578190505b61453c614534856143fe565b8301826144db565b50505b505050565b600082821c905092915050565b600061456260001984600802614544565b1980831691505092915050565b600061457b8383614551565b9150826002028217905092915050565b61459482613934565b67ffffffffffffffff8111156145ad576145ac613c71565b5b6145b782546142e7565b6145c28282856144fe565b600060209050601f8311600181146145f557600084156145e3578287015190505b6145ed858261456f565b865550614655565b601f198416614603866143e9565b60005b8281101561462b57848901518255600182019150602085019450602081019050614606565b868310156146485784890151614644601f891682614551565b8355505b6001600288020188555050505b505050505050565b7f4e6f20436f6e74726163747320416c6c6f776564000000000000000000000000600082015250565b600061469360148361393f565b915061469e8261465d565b602082019050919050565b600060208201905081810360008301526146c281614686565b9050919050565b7f436f6e7472616374204d696e74696e6720506175736564000000000000000000600082015250565b60006146ff60178361393f565b915061470a826146c9565b602082019050919050565b6000602082019050818103600083015261472e816146f2565b9050919050565b7f3a2043616e6e6f74204d696e7420447572696e672057686974656c697374205360008201527f616c650000000000000000000000000000000000000000000000000000000000602082015250565b600061479160238361393f565b915061479c82614735565b604082019050919050565b600060208201905081810360008301526147c081614784565b9050919050565b7f4578636565647320706572205472616e73616374696f6e204c696d6974000000600082015250565b60006147fd601d8361393f565b9150614808826147c7565b602082019050919050565b6000602082019050818103600083015261482c816147f0565b9050919050565b7f496e73756666696369656e742046756e64000000000000000000000000000000600082015250565b600061486960118361393f565b915061487482614833565b602082019050919050565b600060208201905081810360008301526148988161485c565b9050919050565b60006148aa826137ca565b91506148b5836137ca565b92508282019050808211156148cd576148cc614318565b5b92915050565b7f45786365656473204d6178204d696e74204c696d697400000000000000000000600082015250565b600061490960168361393f565b9150614914826148d3565b602082019050919050565b60006020820190508181036000830152614938816148fc565b9050919050565b7f3a204e6f206d6f7265204e46547320746f206d696e742c64656372656173652060008201527f746865207175616e74697479206f7220636865636b206f7574204f70656e536560208201527f612e000000000000000000000000000000000000000000000000000000000000604082015250565b60006149c160428361393f565b91506149cc8261493f565b606082019050919050565b600060208201905081810360008301526149f0816149b4565b9050919050565b600081905092915050565b50565b6000614a126000836149f7565b9150614a1d82614a02565b600082019050919050565b6000614a3382614a05565b9150819050919050565b7f5472616e73666572206661696c65642e00000000000000000000000000000000600082015250565b6000614a7360108361393f565b9150614a7e82614a3d565b602082019050919050565b60006020820190508181036000830152614aa281614a66565b9050919050565b7f4552433732314d657461646174613a2055524920717565727920666f72206e6f60008201527f6e6578697374656e7420746f6b656e0000000000000000000000000000000000602082015250565b6000614b05602f8361393f565b9150614b1082614aa9565b604082019050919050565b60006020820190508181036000830152614b3481614af8565b9050919050565b600081905092915050565b60008154614b53816142e7565b614b5d8186614b3b565b94506001821660008114614b785760018114614b8d57614bc0565b60ff1983168652811515820286019350614bc0565b614b96856143e9565b60005b83811015614bb857815481890152600182019150602081019050614b99565b838801955050505b50505092915050565b6000614bd482613934565b614bde8185614b3b565b9350614bee818560208601613950565b80840191505092915050565b6000614c068286614b46565b9150614c128285614bc9565b9150614c1e8284614b46565b9150819050949350505050565b7f3a2043616e6e6f74204d696e7420447572696e6720526567756c61722053616c60008201527f6500000000000000000000000000000000000000000000000000000000000000602082015250565b6000614c8760218361393f565b9150614c9282614c2b565b604082019050919050565b60006020820190508181036000830152614cb681614c7a565b9050919050565b7f457863656564732050726573616c65204c696d69740000000000000000000000600082015250565b6000614cf360158361393f565b9150614cfe82614cbd565b602082019050919050565b60006020820190508181036000830152614d2281614ce6565b9050919050565b7f596f75206861766520616c7265616479206d696e74656420746865206d61782060008201527f616c6c6f77656400000000000000000000000000000000000000000000000000602082015250565b6000614d8560278361393f565b9150614d9082614d29565b604082019050919050565b60006020820190508181036000830152614db481614d78565b9050919050565b60008160601b9050919050565b6000614dd382614dbb565b9050919050565b6000614de582614dc8565b9050919050565b614dfd614df8826137a9565b614dda565b82525050565b6000614e0f8284614dec565b60148201915081905092915050565b7f596f7520617265204e6f742077686974656c6973746564000000000000000000600082015250565b6000614e5460178361393f565b9150614e5f82614e1e565b602082019050919050565b60006020820190508181036000830152614e8381614e47565b9050919050565b7f4f776e61626c653a206e6577206f776e657220697320746865207a65726f206160008201527f6464726573730000000000000000000000000000000000000000000000000000602082015250565b6000614ee660268361393f565b9150614ef182614e8a565b604082019050919050565b60006020820190508181036000830152614f1581614ed9565b9050919050565b7f41697264726f702045786365656473204d6178537570706c7900000000000000600082015250565b6000614f5260198361393f565b9150614f5d82614f1c565b602082019050919050565b60006020820190508181036000830152614f8181614f45565b9050919050565b7f41697264726f70204578636565647320526573657276656420537570706c7900600082015250565b6000614fbe601f8361393f565b9150614fc982614f88565b602082019050919050565b60006020820190508181036000830152614fed81614fb1565b9050919050565b7f4e487b7100000000000000000000000000000000000000000000000000000000600052603260045260246000fd5b600061502e826137ca565b91507fffffffffffffffffffffffffffffffffffffffffffffffffffffffffffffffff82036150605761505f614318565b5b600182019050919050565b7f4f776e61626c653a2063616c6c6572206973206e6f7420746865206f776e6572600082015250565b60006150a160208361393f565b91506150ac8261506b565b602082019050919050565b600060208201905081810360008301526150d081615094565b9050919050565b7f455243323938313a20726f79616c7479206665652077696c6c2065786365656460008201527f2073616c65507269636500000000000000000000000000000000000000000000602082015250565b6000615133602a8361393f565b915061513e826150d7565b604082019050919050565b6000602082019050818103600083015261516281615126565b9050919050565b7f455243323938313a20696e76616c696420726563656976657200000000000000600082015250565b600061519f60198361393f565b91506151aa82615169565b602082019050919050565b600060208201905081810360008301526151ce81615192565b9050919050565b60006040820190506151ea60008301856137bb565b6151f760208301846137bb565b9392505050565b60008151905061520d81613e6d565b92915050565b60006020828403121561522957615228613816565b5b6000615237848285016151fe565b91505092915050565b7f5265656e7472616e637947756172643a207265656e7472616e742063616c6c00600082015250565b6000615276601f8361393f565b915061528182615240565b602082019050919050565b600060208201905081810360008301526152a581615269565b9050919050565b600081519050919050565b600082825260208201905092915050565b60006152d3826152ac565b6152dd81856152b7565b93506152ed818560208601613950565b6152f68161397a565b840191505092915050565b600060808201905061531660008301876137bb565b61532360208301866137bb565b61533060408301856137d4565b818103606083015261534281846152c8565b905095945050505050565b60008151905061535c8161384c565b92915050565b60006020828403121561537857615377613816565b5b60006153868482850161534d565b9150509291505056fea26469706673582212208b2f1756c0883a027f2cce3dbc1a6e6a040c82949d96d9483d921ca4e70a9f4f64736f6c63430008120033",
  "linkReferences": {},
  "deployedLinkReferences": {}
}