{
  "_format": "hh-sol-artifact-1",
  "contractName": "MinArtClub",
  "sourceName": "contracts/NFT.sol",
  "abi": [
    {
      "inputs": [],
      "stateMutability": "nonpayable",
      "type": "constructor"
    },
    {
      "inputs": [],
      "name": "ApprovalCallerNotOwnerNorApproved",
      "type": "error"
    },
    {
      "inputs": [],
      "name": "ApprovalQueryForNonexistentToken",
      "type": "error"
    },
    {
      "inputs": [],
      "name": "BalanceQueryForZeroAddress",
      "type": "error"
    },
    {
      "inputs": [],
      "name": "MintERC2309QuantityExceedsLimit",
      "type": "error"
    },
    {
      "inputs": [],
      "name": "MintToZeroAddress",
      "type": "error"
    },
    {
      "inputs": [],
      "name": "MintZeroQuantity",
      "type": "error"
    },
    {
      "inputs": [],
      "name": "OwnerQueryForNonexistentToken",
      "type": "error"
    },
    {
      "inputs": [],
      "name": "OwnershipNotInitializedForExtraData",
      "type": "error"
    },
    {
      "inputs": [],
      "name": "TransferCallerNotOwnerNorApproved",
      "type": "error"
    },
    {
      "inputs": [],
      "name": "TransferFromIncorrectOwner",
      "type": "error"
    },
    {
      "inputs": [],
      "name": "TransferToNonERC721ReceiverImplementer",
      "type": "error"
    },
    {
      "inputs": [],
      "name": "TransferToZeroAddress",
      "type": "error"
    },
    {
      "inputs": [],
      "name": "URIQueryForNonexistentToken",
      "type": "error"
    },
    {
      "anonymous": false,
      "inputs": [
        {
          "indexed": true,
          "internalType": "address",
          "name": "owner",
          "type": "address"
        },
        {
          "indexed": true,
          "internalType": "address",
          "name": "approved",
          "type": "address"
        },
        {
          "indexed": true,
          "internalType": "uint256",
          "name": "tokenId",
          "type": "uint256"
        }
      ],
      "name": "Approval",
      "type": "event"
    },
    {
      "anonymous": false,
      "inputs": [
        {
          "indexed": true,
          "internalType": "address",
          "name": "owner",
          "type": "address"
        },
        {
          "indexed": true,
          "internalType": "address",
          "name": "operator",
          "type": "address"
        },
        {
          "indexed": false,
          "internalType": "bool",
          "name": "approved",
          "type": "bool"
        }
      ],
      "name": "ApprovalForAll",
      "type": "event"
    },
    {
      "anonymous": false,
      "inputs": [
        {
          "indexed": true,
          "internalType": "uint256",
          "name": "fromTokenId",
          "type": "uint256"
        },
        {
          "indexed": false,
          "internalType": "uint256",
          "name": "toTokenId",
          "type": "uint256"
        },
        {
          "indexed": true,
          "internalType": "address",
          "name": "from",
          "type": "address"
        },
        {
          "indexed": true,
          "internalType": "address",
          "name": "to",
          "type": "address"
        }
      ],
      "name": "ConsecutiveTransfer",
      "type": "event"
    },
    {
      "anonymous": false,
      "inputs": [
        {
          "indexed": true,
          "internalType": "address",
          "name": "previousOwner",
          "type": "address"
        },
        {
          "indexed": true,
          "internalType": "address",
          "name": "newOwner",
          "type": "address"
        }
      ],
      "name": "OwnershipTransferred",
      "type": "event"
    },
    {
      "anonymous": false,
      "inputs": [
        {
          "indexed": true,
          "internalType": "address",
          "name": "from",
          "type": "address"
        },
        {
          "indexed": true,
          "internalType": "address",
          "name": "to",
          "type": "address"
        },
        {
          "indexed": true,
          "internalType": "uint256",
          "name": "tokenId",
          "type": "uint256"
        }
      ],
      "name": "Transfer",
      "type": "event"
    },
    {
      "inputs": [
        {
          "internalType": "uint256",
          "name": "amount",
          "type": "uint256"
        },
        {
          "internalType": "address[]",
          "name": "_address",
          "type": "address[]"
        }
      ],
      "name": "_airdrop",
      "outputs": [],
      "stateMutability": "nonpayable",
      "type": "function"
    },
    {
      "inputs": [],
      "name": "_baseTokenEXT",
      "outputs": [
        {
          "internalType": "string",
          "name": "",
          "type": "string"
        }
      ],
      "stateMutability": "view",
      "type": "function"
    },
    {
      "inputs": [],
      "name": "_baseTokenURI",
      "outputs": [
        {
          "internalType": "string",
          "name": "",
          "type": "string"
        }
      ],
      "stateMutability": "view",
      "type": "function"
    },
    {
      "inputs": [
        {
          "internalType": "address",
          "name": "to",
          "type": "address"
        },
        {
          "internalType": "uint256",
          "name": "tokenId",
          "type": "uint256"
        }
      ],
      "name": "approve",
      "outputs": [],
      "stateMutability": "payable",
      "type": "function"
    },
    {
      "inputs": [
        {
          "internalType": "address",
          "name": "owner",
          "type": "address"
        }
      ],
      "name": "balanceOf",
      "outputs": [
        {
          "internalType": "uint256",
          "name": "",
          "type": "uint256"
        }
      ],
      "stateMutability": "view",
      "type": "function"
    },
    {
      "inputs": [
        {
          "internalType": "string",
          "name": "_nURL",
          "type": "string"
        },
        {
          "internalType": "string",
          "name": "_nBaseExt",
          "type": "string"
        }
      ],
      "name": "changeURLParams",
      "outputs": [],
      "stateMutability": "nonpayable",
      "type": "function"
    },
    {
      "inputs": [
        {
          "internalType": "uint256",
          "name": "tokenId",
          "type": "uint256"
        }
      ],
      "name": "getApproved",
      "outputs": [
        {
          "internalType": "address",
          "name": "",
          "type": "address"
        }
      ],
      "stateMutability": "view",
      "type": "function"
    },
    {
      "inputs": [
        {
          "internalType": "address",
          "name": "owner",
          "type": "address"
        },
        {
          "internalType": "address",
          "name": "operator",
          "type": "address"
        }
      ],
      "name": "isApprovedForAll",
      "outputs": [
        {
          "internalType": "bool",
          "name": "",
          "type": "bool"
        }
      ],
      "stateMutability": "view",
      "type": "function"
    },
    {
      "inputs": [],
      "name": "maxMint",
      "outputs": [
        {
          "internalType": "uint256",
          "name": "",
          "type": "uint256"
        }
      ],
      "stateMutability": "view",
      "type": "function"
    },
    {
      "inputs": [],
      "name": "maxSupply",
      "outputs": [
        {
          "internalType": "uint256",
          "name": "",
          "type": "uint256"
        }
      ],
      "stateMutability": "view",
      "type": "function"
    },
    {
      "inputs": [],
      "name": "merkleRoot",
      "outputs": [
        {
          "internalType": "bytes32",
          "name": "",
          "type": "bytes32"
        }
      ],
      "stateMutability": "view",
      "type": "function"
    },
    {
      "inputs": [
        {
          "internalType": "uint256",
          "name": "_mintAmount",
          "type": "uint256"
        }
      ],
      "name": "mint",
      "outputs": [],
      "stateMutability": "payable",
      "type": "function"
    },
    {
      "inputs": [],
      "name": "name",
      "outputs": [
        {
          "internalType": "string",
          "name": "",
          "type": "string"
        }
      ],
      "stateMutability": "view",
      "type": "function"
    },
    {
      "inputs": [],
      "name": "notRevealedUri",
      "outputs": [
        {
          "internalType": "string",
          "name": "",
          "type": "string"
        }
      ],
      "stateMutability": "view",
      "type": "function"
    },
    {
      "inputs": [],
      "name": "owner",
      "outputs": [
        {
          "internalType": "address",
          "name": "",
          "type": "address"
        }
      ],
      "stateMutability": "view",
      "type": "function"
    },
    {
      "inputs": [
        {
          "internalType": "uint256",
          "name": "tokenId",
          "type": "uint256"
        }
      ],
      "name": "ownerOf",
      "outputs": [
        {
          "internalType": "address",
          "name": "",
          "type": "address"
        }
      ],
      "stateMutability": "view",
      "type": "function"
    },
    {
      "inputs": [],
      "name": "paused",
      "outputs": [
        {
          "internalType": "bool",
          "name": "",
          "type": "bool"
        }
      ],
      "stateMutability": "view",
      "type": "function"
    },
    {
      "inputs": [],
      "name": "perTxCap",
      "outputs": [
        {
          "internalType": "uint256",
          "name": "",
          "type": "uint256"
        }
      ],
      "stateMutability": "view",
      "type": "function"
    },
    {
      "inputs": [],
      "name": "price",
      "outputs": [
        {
          "internalType": "uint256",
          "name": "",
          "type": "uint256"
        }
      ],
      "stateMutability": "view",
      "type": "function"
    },
    {
      "inputs": [],
      "name": "renounceOwnership",
      "outputs": [],
      "stateMutability": "nonpayable",
      "type": "function"
    },
    {
      "inputs": [],
      "name": "reserved",
      "outputs": [
        {
          "internalType": "uint256",
          "name": "",
          "type": "uint256"
        }
      ],
      "stateMutability": "view",
      "type": "function"
    },
    {
      "inputs": [],
      "name": "reservedClaimed",
      "outputs": [
        {
          "internalType": "uint256",
          "name": "",
          "type": "uint256"
        }
      ],
      "stateMutability": "view",
      "type": "function"
    },
    {
      "inputs": [],
      "name": "revealed",
      "outputs": [
        {
          "internalType": "bool",
          "name": "",
          "type": "bool"
        }
      ],
      "stateMutability": "view",
      "type": "function"
    },
    {
      "inputs": [
        {
          "internalType": "address",
          "name": "from",
          "type": "address"
        },
        {
          "internalType": "address",
          "name": "to",
          "type": "address"
        },
        {
          "internalType": "uint256",
          "name": "tokenId",
          "type": "uint256"
        }
      ],
      "name": "safeTransferFrom",
      "outputs": [],
      "stateMutability": "payable",
      "type": "function"
    },
    {
      "inputs": [
        {
          "internalType": "address",
          "name": "from",
          "type": "address"
        },
        {
          "internalType": "address",
          "name": "to",
          "type": "address"
        },
        {
          "internalType": "uint256",
          "name": "tokenId",
          "type": "uint256"
        },
        {
          "internalType": "bytes",
          "name": "_data",
          "type": "bytes"
        }
      ],
      "name": "safeTransferFrom",
      "outputs": [],
      "stateMutability": "payable",
      "type": "function"
    },
    {
      "inputs": [
        {
          "internalType": "address",
          "name": "operator",
          "type": "address"
        },
        {
          "internalType": "bool",
          "name": "approved",
          "type": "bool"
        }
      ],
      "name": "setApprovalForAll",
      "outputs": [],
      "stateMutability": "nonpayable",
      "type": "function"
    },
    {
      "inputs": [
        {
          "internalType": "bytes32",
          "name": "merkleHash",
          "type": "bytes32"
        }
      ],
      "name": "setMerkleRoot",
      "outputs": [],
      "stateMutability": "nonpayable",
      "type": "function"
    },
    {
      "inputs": [
        {
          "internalType": "string",
          "name": "_notRevealedURI",
          "type": "string"
        }
      ],
      "name": "setNotRevealedURI",
      "outputs": [],
      "stateMutability": "nonpayable",
      "type": "function"
    },
    {
      "inputs": [
        {
          "internalType": "uint256",
          "name": "newPrice",
          "type": "uint256"
        }
      ],
      "name": "setPrice",
      "outputs": [],
      "stateMutability": "nonpayable",
      "type": "function"
    },
    {
      "inputs": [
        {
          "internalType": "uint256",
          "name": "newPrice",
          "type": "uint256"
        }
      ],
      "name": "setWLPrice",
      "outputs": [],
      "stateMutability": "nonpayable",
      "type": "function"
    },
    {
      "inputs": [
        {
          "internalType": "bytes4",
          "name": "interfaceId",
          "type": "bytes4"
        }
      ],
      "name": "supportsInterface",
      "outputs": [
        {
          "internalType": "bool",
          "name": "",
          "type": "bool"
        }
      ],
      "stateMutability": "view",
      "type": "function"
    },
    {
      "inputs": [],
      "name": "symbol",
      "outputs": [
        {
          "internalType": "string",
          "name": "",
          "type": "string"
        }
      ],
      "stateMutability": "view",
      "type": "function"
    },
    {
      "inputs": [],
      "name": "togglePause",
      "outputs": [],
      "stateMutability": "nonpayable",
      "type": "function"
    },
    {
      "inputs": [],
      "name": "toggleReveal",
      "outputs": [],
      "stateMutability": "nonpayable",
      "type": "function"
    },
    {
      "inputs": [],
      "name": "toggleWhiteList",
      "outputs": [],
      "stateMutability": "nonpayable",
      "type": "function"
    },
    {
      "inputs": [
        {
          "internalType": "uint256",
          "name": "tokenId",
          "type": "uint256"
        }
      ],
      "name": "tokenURI",
      "outputs": [
        {
          "internalType": "string",
          "name": "",
          "type": "string"
        }
      ],
      "stateMutability": "view",
      "type": "function"
    },
    {
      "inputs": [],
      "name": "totalSupply",
      "outputs": [
        {
          "internalType": "uint256",
          "name": "",
          "type": "uint256"
        }
      ],
      "stateMutability": "view",
      "type": "function"
    },
    {
      "inputs": [
        {
          "internalType": "address",
          "name": "from",
          "type": "address"
        },
        {
          "internalType": "address",
          "name": "to",
          "type": "address"
        },
        {
          "internalType": "uint256",
          "name": "tokenId",
          "type": "uint256"
        }
      ],
      "name": "transferFrom",
      "outputs": [],
      "stateMutability": "payable",
      "type": "function"
    },
    {
      "inputs": [
        {
          "internalType": "address",
          "name": "newOwner",
          "type": "address"
        }
      ],
      "name": "transferOwnership",
      "outputs": [],
      "stateMutability": "nonpayable",
      "type": "function"
    },
    {
      "inputs": [
        {
          "internalType": "address",
          "name": "",
          "type": "address"
        }
      ],
      "name": "userMints",
      "outputs": [
        {
          "internalType": "uint256",
          "name": "",
          "type": "uint256"
        }
      ],
      "stateMutability": "view",
      "type": "function"
    },
    {
      "inputs": [
        {
          "internalType": "address",
          "name": "",
          "type": "address"
        }
      ],
      "name": "userWLMints",
      "outputs": [
        {
          "internalType": "uint256",
          "name": "",
          "type": "uint256"
        }
      ],
      "stateMutability": "view",
      "type": "function"
    },
    {
      "inputs": [],
      "name": "whitelistMaxMint",
      "outputs": [
        {
          "internalType": "uint256",
          "name": "",
          "type": "uint256"
        }
      ],
      "stateMutability": "view",
      "type": "function"
    },
    {
      "inputs": [
        {
          "internalType": "uint256",
          "name": "_mintAmount",
          "type": "uint256"
        },
        {
          "internalType": "bytes32[]",
          "name": "merkleProof",
          "type": "bytes32[]"
        }
      ],
      "name": "whitelistMint",
      "outputs": [],
      "stateMutability": "payable",
      "type": "function"
    },
    {
      "inputs": [],
      "name": "whitelistPrice",
      "outputs": [
        {
          "internalType": "uint256",
          "name": "",
          "type": "uint256"
        }
      ],
      "stateMutability": "view",
      "type": "function"
    },
    {
      "inputs": [],
      "name": "whitelistSale",
      "outputs": [
        {
          "internalType": "bool",
          "name": "",
          "type": "bool"
        }
      ],
      "stateMutability": "view",
      "type": "function"
    },
    {
      "inputs": [],
      "name": "withdrawMoney",
      "outputs": [],
      "stateMutability": "nonpayable",
      "type": "function"
    }
  ],
  "bytecode": "0x60806040526002600a55670494654067e10000600b556001600c556001600d556001600e60006101000a81548160ff0219169083151502179055506000601260006101000a81548160ff0219169083151502179055506001601260016101000a81548160ff021916908315150217905550600160135566038d7ea4c680006014556101f460165560006017553480156200009857600080fd5b506040518060400160405280600c81526020017f6d696e2041727420436c756200000000000000000000000000000000000000008152506040518060400160405280600381526020017f4d414300000000000000000000000000000000000000000000000000000000008152508160029081620001169190620004c0565b508060039081620001289190620004c0565b50620001396200016f60201b60201c565b600081905550505062000161620001556200017860201b60201c565b6200018060201b60201c565b6001600981905550620005a7565b60006001905090565b600033905090565b6000600860009054906101000a900473ffffffffffffffffffffffffffffffffffffffff16905081600860006101000a81548173ffffffffffffffffffffffffffffffffffffffff021916908373ffffffffffffffffffffffffffffffffffffffff1602179055508173ffffffffffffffffffffffffffffffffffffffff168173ffffffffffffffffffffffffffffffffffffffff167f8be0079c531659141344cd1fd0a4f28419497f9722a3daafe3b4186f6b6457e060405160405180910390a35050565b600081519050919050565b7f4e487b7100000000000000000000000000000000000000000000000000000000600052604160045260246000fd5b7f4e487b7100000000000000000000000000000000000000000000000000000000600052602260045260246000fd5b60006002820490506001821680620002c857607f821691505b602082108103620002de57620002dd62000280565b5b50919050565b60008190508160005260206000209050919050565b60006020601f8301049050919050565b600082821b905092915050565b600060088302620003487fffffffffffffffffffffffffffffffffffffffffffffffffffffffffffffffff8262000309565b62000354868362000309565b95508019841693508086168417925050509392505050565b6000819050919050565b6000819050919050565b6000620003a16200039b62000395846200036c565b62000376565b6200036c565b9050919050565b6000819050919050565b620003bd8362000380565b620003d5620003cc82620003a8565b84845462000316565b825550505050565b600090565b620003ec620003dd565b620003f9818484620003b2565b505050565b5b81811015620004215762000415600082620003e2565b600181019050620003ff565b5050565b601f82111562000470576200043a81620002e4565b6200044584620002f9565b8101602085101562000455578190505b6200046d6200046485620002f9565b830182620003fe565b50505b505050565b600082821c905092915050565b6000620004956000198460080262000475565b1980831691505092915050565b6000620004b0838362000482565b9150826002028217905092915050565b620004cb8262000246565b67ffffffffffffffff811115620004e757620004e662000251565b5b620004f38254620002af565b6200050082828562000425565b600060209050601f83116001811462000538576000841562000523578287015190505b6200052f8582620004a2565b8655506200059f565b601f1984166200054886620002e4565b60005b8281101562000572578489015182556001820191506020850194506020810190506200054b565b868310156200059257848901516200058e601f89168262000482565b8355505b6001600288020188555050505b505050505050565b6145b680620005b76000396000f3fe60806040526004361061027d5760003560e01c806385fee1681161014f578063c87b56dd116100c1578063f2c4ce1e1161007a578063f2c4ce1e14610904578063f2fde38b1461092d578063f4b2965d14610956578063f6a5b8e61461097f578063fc1a1c36146109a8578063fe60d12c146109d35761027d565b8063c87b56dd146107db578063cfc86f7b14610818578063d2cab05614610843578063d5abeb011461085f578063df2823311461088a578063e985e9c5146108c75761027d565b8063a0712d6811610113578063a0712d6814610721578063a22cb4651461073d578063ac44600214610766578063ad82cbea1461077d578063b88d4fde146107a8578063c4ae3168146107c45761027d565b806385fee1681461064c5780638da5cb5b1461067757806391b7f5ed146106a257806395d89b41146106cb578063a035b1fe146106f65761027d565b806348003300116101f357806370a08231116101ac57806370a0823114610550578063715018a61461058d578063722e141d146105a45780637501f741146105cf578063783fd922146105fa5780637cb64759146106235761027d565b80634800330014610452578063518302271461048f5780635b8ad429146104ba5780635c975abb146104d157806363430b38146104fc5780636352211e146105135761027d565b806318160ddd1161024557806318160ddd1461036e57806323b872dd1461039957806324510043146103b55780632eb4a7ab146103e057806331ffd6f11461040b57806342842e0e146104365761027d565b806301ffc9a71461028257806306fdde03146102bf578063081812fc146102ea578063081c8c4414610327578063095ea7b314610352575b600080fd5b34801561028e57600080fd5b506102a960048036038101906102a49190612d1d565b6109fe565b6040516102b69190612d65565b60405180910390f35b3480156102cb57600080fd5b506102d4610a90565b6040516102e19190612e10565b60405180910390f35b3480156102f657600080fd5b50610311600480360381019061030c9190612e68565b610b22565b60405161031e9190612ed6565b60405180910390f35b34801561033357600080fd5b5061033c610ba1565b6040516103499190612e10565b60405180910390f35b61036c60048036038101906103679190612f1d565b610c2f565b005b34801561037a57600080fd5b50610383610d73565b6040516103909190612f6c565b60405180910390f35b6103b360048036038101906103ae9190612f87565b610d8a565b005b3480156103c157600080fd5b506103ca6110ac565b6040516103d79190612f6c565b60405180910390f35b3480156103ec57600080fd5b506103f56110b2565b6040516104029190612ff3565b60405180910390f35b34801561041757600080fd5b506104206110b8565b60405161042d9190612d65565b60405180910390f35b610450600480360381019061044b9190612f87565b6110cb565b005b34801561045e57600080fd5b506104796004803603810190610474919061300e565b6110eb565b6040516104869190612f6c565b60405180910390f35b34801561049b57600080fd5b506104a4611103565b6040516104b19190612d65565b60405180910390f35b3480156104c657600080fd5b506104cf611116565b005b3480156104dd57600080fd5b506104e661114a565b6040516104f39190612d65565b60405180910390f35b34801561050857600080fd5b5061051161115d565b005b34801561051f57600080fd5b5061053a60048036038101906105359190612e68565b611191565b6040516105479190612ed6565b60405180910390f35b34801561055c57600080fd5b506105776004803603810190610572919061300e565b6111a3565b6040516105849190612f6c565b60405180910390f35b34801561059957600080fd5b506105a261125b565b005b3480156105b057600080fd5b506105b961126f565b6040516105c69190612f6c565b60405180910390f35b3480156105db57600080fd5b506105e4611275565b6040516105f19190612f6c565b60405180910390f35b34801561060657600080fd5b50610621600480360381019061061c9190613170565b61127b565b005b34801561062f57600080fd5b5061064a60048036038101906106459190613214565b6112a7565b005b34801561065857600080fd5b506106616112b9565b60405161066e9190612e10565b60405180910390f35b34801561068357600080fd5b5061068c611347565b6040516106999190612ed6565b60405180910390f35b3480156106ae57600080fd5b506106c960048036038101906106c49190612e68565b611371565b005b3480156106d757600080fd5b506106e0611383565b6040516106ed9190612e10565b60405180910390f35b34801561070257600080fd5b5061070b611415565b6040516107189190612f6c565b60405180910390f35b61073b60048036038101906107369190612e68565b61141b565b005b34801561074957600080fd5b50610764600480360381019061075f919061326d565b611717565b005b34801561077257600080fd5b5061077b611822565b005b34801561078957600080fd5b506107926118e9565b60405161079f9190612f6c565b60405180910390f35b6107c260048036038101906107bd919061334e565b6118ef565b005b3480156107d057600080fd5b506107d9611962565b005b3480156107e757600080fd5b5061080260048036038101906107fd9190612e68565b611996565b60405161080f9190612e10565b60405180910390f35b34801561082457600080fd5b5061082d611aef565b60405161083a9190612e10565b60405180910390f35b61085d60048036038101906108589190613431565b611b7d565b005b34801561086b57600080fd5b50610874611f33565b6040516108819190612f6c565b60405180910390f35b34801561089657600080fd5b506108b160048036038101906108ac919061300e565b611f39565b6040516108be9190612f6c565b60405180910390f35b3480156108d357600080fd5b506108ee60048036038101906108e99190613491565b611f51565b6040516108fb9190612d65565b60405180910390f35b34801561091057600080fd5b5061092b600480360381019061092691906134d1565b611fe5565b005b34801561093957600080fd5b50610954600480360381019061094f919061300e565b612000565b005b34801561096257600080fd5b5061097d600480360381019061097891906135dd565b612083565b005b34801561098b57600080fd5b506109a660048036038101906109a19190612e68565b6121a7565b005b3480156109b457600080fd5b506109bd6121b9565b6040516109ca9190612f6c565b60405180910390f35b3480156109df57600080fd5b506109e86121bf565b6040516109f59190612f6c565b60405180910390f35b60006301ffc9a760e01b827bffffffffffffffffffffffffffffffffffffffffffffffffffffffff19161480610a5957506380ac58cd60e01b827bffffffffffffffffffffffffffffffffffffffffffffffffffffffff1916145b80610a895750635b5e139f60e01b827bffffffffffffffffffffffffffffffffffffffffffffffffffffffff1916145b9050919050565b606060028054610a9f90613668565b80601f0160208091040260200160405190810160405280929190818152602001828054610acb90613668565b8015610b185780601f10610aed57610100808354040283529160200191610b18565b820191906000526020600020905b815481529060010190602001808311610afb57829003601f168201915b5050505050905090565b6000610b2d826121c5565b610b63576040517fcf4700e400000000000000000000000000000000000000000000000000000000815260040160405180910390fd5b6006600083815260200190815260200160002060000160009054906101000a900473ffffffffffffffffffffffffffffffffffffffff169050919050565b60118054610bae90613668565b80601f0160208091040260200160405190810160405280929190818152602001828054610bda90613668565b8015610c275780601f10610bfc57610100808354040283529160200191610c27565b820191906000526020600020905b815481529060010190602001808311610c0a57829003601f168201915b505050505081565b6000610c3a82611191565b90508073ffffffffffffffffffffffffffffffffffffffff16610c5b612224565b73ffffffffffffffffffffffffffffffffffffffff1614610cbe57610c8781610c82612224565b611f51565b610cbd576040517fcfb3b94200000000000000000000000000000000000000000000000000000000815260040160405180910390fd5b5b826006600084815260200190815260200160002060000160006101000a81548173ffffffffffffffffffffffffffffffffffffffff021916908373ffffffffffffffffffffffffffffffffffffffff160217905550818373ffffffffffffffffffffffffffffffffffffffff168273ffffffffffffffffffffffffffffffffffffffff167f8c5be1e5ebec7d5bd14f71427d1e84f3dd0314c0f7b2291e5b200ac8c7c3b92560405160405180910390a4505050565b6000610d7d61222c565b6001546000540303905090565b6000610d9582612235565b90508373ffffffffffffffffffffffffffffffffffffffff168173ffffffffffffffffffffffffffffffffffffffff1614610dfc576040517fa114810000000000000000000000000000000000000000000000000000000000815260040160405180910390fd5b600080610e0884612301565b91509150610e1e8187610e19612224565b612328565b610e6a57610e3386610e2e612224565b611f51565b610e69576040517f59c896be00000000000000000000000000000000000000000000000000000000815260040160405180910390fd5b5b600073ffffffffffffffffffffffffffffffffffffffff168573ffffffffffffffffffffffffffffffffffffffff1603610ed0576040517fea553b3400000000000000000000000000000000000000000000000000000000815260040160405180910390fd5b610edd868686600161236c565b8015610ee857600082555b600560008773ffffffffffffffffffffffffffffffffffffffff1673ffffffffffffffffffffffffffffffffffffffff168152602001908152602001600020600081546001900391905081905550600560008673ffffffffffffffffffffffffffffffffffffffff1673ffffffffffffffffffffffffffffffffffffffff1681526020019081526020016000206000815460010191905081905550610fb685610f92888887612372565b7c02000000000000000000000000000000000000000000000000000000001761239a565b600460008681526020019081526020016000208190555060007c020000000000000000000000000000000000000000000000000000000084160361103c576000600185019050600060046000838152602001908152602001600020540361103a576000548114611039578360046000838152602001908152602001600020819055505b5b505b838573ffffffffffffffffffffffffffffffffffffffff168773ffffffffffffffffffffffffffffffffffffffff167fddf252ad1be2c89b69c2b068fc378daa952ba7f163c4a11628f55a4df523b3ef60405160405180910390a46110a486868660016123c5565b505050505050565b60175481565b60155481565b601260019054906101000a900460ff1681565b6110e6838383604051806020016040528060008152506118ef565b505050565b60186020528060005260406000206000915090505481565b601260009054906101000a900460ff1681565b61111e6123cb565b601260009054906101000a900460ff1615601260006101000a81548160ff021916908315150217905550565b600e60009054906101000a900460ff1681565b6111656123cb565b601260019054906101000a900460ff1615601260016101000a81548160ff021916908315150217905550565b600061119c82612235565b9050919050565b60008073ffffffffffffffffffffffffffffffffffffffff168273ffffffffffffffffffffffffffffffffffffffff160361120a576040517f8f4eb60400000000000000000000000000000000000000000000000000000000815260040160405180910390fd5b67ffffffffffffffff600560008473ffffffffffffffffffffffffffffffffffffffff1673ffffffffffffffffffffffffffffffffffffffff16815260200190815260200160002054169050919050565b6112636123cb565b61126d6000612449565b565b60135481565b600d5481565b6112836123cb565b81600f90816112929190613845565b5080601090816112a29190613845565b505050565b6112af6123cb565b8060158190555050565b601080546112c690613668565b80601f01602080910402602001604051908101604052809291908181526020018280546112f290613668565b801561133f5780601f106113145761010080835404028352916020019161133f565b820191906000526020600020905b81548152906001019060200180831161132257829003601f168201915b505050505081565b6000600860009054906101000a900473ffffffffffffffffffffffffffffffffffffffff16905090565b6113796123cb565b80600b8190555050565b60606003805461139290613668565b80601f01602080910402602001604051908101604052809291908181526020018280546113be90613668565b801561140b5780601f106113e05761010080835404028352916020019161140b565b820191906000526020600020905b8154815290600101906020018083116113ee57829003601f168201915b5050505050905090565b600b5481565b61142361250f565b3373ffffffffffffffffffffffffffffffffffffffff163273ffffffffffffffffffffffffffffffffffffffff1614611491576040517f08c379a000000000000000000000000000000000000000000000000000000000815260040161148890613963565b60405180910390fd5b600e60009054906101000a900460ff16156114e1576040517f08c379a00000000000000000000000000000000000000000000000000000000081526004016114d8906139cf565b60405180910390fd5b601260019054906101000a900460ff1615611531576040517f08c379a000000000000000000000000000000000000000000000000000000000815260040161152890613a61565b60405180910390fd5b600c54811115611576576040517f08c379a000000000000000000000000000000000000000000000000000000000815260040161156d90613acd565b60405180910390fd5b80600b546115849190613b1c565b3410156115c6576040517f08c379a00000000000000000000000000000000000000000000000000000000081526004016115bd90613baa565b60405180910390fd5b600d5481601960003373ffffffffffffffffffffffffffffffffffffffff1673ffffffffffffffffffffffffffffffffffffffff168152602001908152602001600020546116149190613bca565b1115611655576040517f08c379a000000000000000000000000000000000000000000000000000000000815260040161164c90613c4a565b60405180910390fd5b600a5481611661610d73565b61166b9190613bca565b11156116ac576040517f08c379a00000000000000000000000000000000000000000000000000000000081526004016116a390613d02565b60405180910390fd5b6116b6338261255e565b80601960003373ffffffffffffffffffffffffffffffffffffffff1673ffffffffffffffffffffffffffffffffffffffff16815260200190815260200160002060008282546117059190613bca565b9250508190555061171461257c565b50565b8060076000611724612224565b73ffffffffffffffffffffffffffffffffffffffff1673ffffffffffffffffffffffffffffffffffffffff16815260200190815260200160002060008473ffffffffffffffffffffffffffffffffffffffff1673ffffffffffffffffffffffffffffffffffffffff16815260200190815260200160002060006101000a81548160ff0219169083151502179055508173ffffffffffffffffffffffffffffffffffffffff166117d1612224565b73ffffffffffffffffffffffffffffffffffffffff167f17307eab39ab6107e8899845ad3d59bd9653f200f220920489ca2b5937696c31836040516118169190612d65565b60405180910390a35050565b61182a6123cb565b61183261250f565b60003373ffffffffffffffffffffffffffffffffffffffff164760405161185890613d53565b60006040518083038185875af1925050503d8060008114611895576040519150601f19603f3d011682016040523d82523d6000602084013e61189a565b606091505b50509050806118de576040517f08c379a00000000000000000000000000000000000000000000000000000000081526004016118d590613db4565b60405180910390fd5b506118e761257c565b565b600c5481565b6118fa848484610d8a565b60008373ffffffffffffffffffffffffffffffffffffffff163b1461195c5761192584848484612586565b61195b576040517fd1a57ed600000000000000000000000000000000000000000000000000000000815260040160405180910390fd5b5b50505050565b61196a6123cb565b600e60009054906101000a900460ff1615600e60006101000a81548160ff021916908315150217905550565b60606119a1826121c5565b6119e0576040517f08c379a00000000000000000000000000000000000000000000000000000000081526004016119d790613e46565b60405180910390fd5b60001515601260009054906101000a900460ff16151503611a8d5760118054611a0890613668565b80601f0160208091040260200160405190810160405280929190818152602001828054611a3490613668565b8015611a815780601f10611a5657610100808354040283529160200191611a81565b820191906000526020600020905b815481529060010190602001808311611a6457829003601f168201915b50505050509050611aea565b6000611a976126d6565b90506000815111611ab75760405180602001604052806000815250611ae6565b600f611ac284612768565b6010604051602001611ad693929190613f25565b6040516020818303038152906040525b9150505b919050565b600f8054611afc90613668565b80601f0160208091040260200160405190810160405280929190818152602001828054611b2890613668565b8015611b755780601f10611b4a57610100808354040283529160200191611b75565b820191906000526020600020905b815481529060010190602001808311611b5857829003601f168201915b505050505081565b611b8561250f565b3373ffffffffffffffffffffffffffffffffffffffff163273ffffffffffffffffffffffffffffffffffffffff1614611bf3576040517f08c379a0000000000000000000000000000000000000000000000000000000008152600401611bea90613963565b60405180910390fd5b600e60009054906101000a900460ff1615611c43576040517f08c379a0000000000000000000000000000000000000000000000000000000008152600401611c3a906139cf565b60405180910390fd5b601260019054906101000a900460ff16611c92576040517f08c379a0000000000000000000000000000000000000000000000000000000008152600401611c8990613fc8565b60405180910390fd5b601354831115611cd7576040517f08c379a0000000000000000000000000000000000000000000000000000000008152600401611cce90614034565b60405180910390fd5b82601454611ce59190613b1c565b341015611d27576040517f08c379a0000000000000000000000000000000000000000000000000000000008152600401611d1e90613baa565b60405180910390fd5b600a5483611d33610d73565b611d3d9190613bca565b1115611d7e576040517f08c379a0000000000000000000000000000000000000000000000000000000008152600401611d7590613d02565b60405180910390fd5b60135483601860003373ffffffffffffffffffffffffffffffffffffffff1673ffffffffffffffffffffffffffffffffffffffff16815260200190815260200160002054611dcc9190613bca565b1115611e0d576040517f08c379a0000000000000000000000000000000000000000000000000000000008152600401611e04906140c6565b60405180910390fd5b600033604051602001611e20919061412e565b604051602081830303815290604052805190602001209050611e86838380806020026020016040519081016040528093929190818152602001838360200280828437600081840152601f19601f8201169050808301925050505050505060155483612836565b611ec5576040517f08c379a0000000000000000000000000000000000000000000000000000000008152600401611ebc90614195565b60405180910390fd5b611ecf338561255e565b83601860003373ffffffffffffffffffffffffffffffffffffffff1673ffffffffffffffffffffffffffffffffffffffff1681526020019081526020016000206000828254611f1e9190613bca565b9250508190555050611f2e61257c565b505050565b600a5481565b60196020528060005260406000206000915090505481565b6000600760008473ffffffffffffffffffffffffffffffffffffffff1673ffffffffffffffffffffffffffffffffffffffff16815260200190815260200160002060008373ffffffffffffffffffffffffffffffffffffffff1673ffffffffffffffffffffffffffffffffffffffff16815260200190815260200160002060009054906101000a900460ff16905092915050565b611fed6123cb565b8060119081611ffc9190613845565b5050565b6120086123cb565b600073ffffffffffffffffffffffffffffffffffffffff168173ffffffffffffffffffffffffffffffffffffffff1603612077576040517f08c379a000000000000000000000000000000000000000000000000000000000815260040161206e90614227565b60405180910390fd5b61208081612449565b50565b61208b6123cb565b600082825161209a9190613b1c565b9050600a54816120a8610d73565b6120b29190613bca565b11156120f3576040517f08c379a00000000000000000000000000000000000000000000000000000000081526004016120ea90614293565b60405180910390fd5b601654601754826121049190613bca565b1115612145576040517f08c379a000000000000000000000000000000000000000000000000000000000815260040161213c906142ff565b60405180910390fd5b60005b8251811015612188576121758382815181106121675761216661431f565b5b60200260200101518561255e565b80806121809061434e565b915050612148565b50806017600082825461219b9190613bca565b92505081905550505050565b6121af6123cb565b8060148190555050565b60145481565b60165481565b6000816121d061222c565b111580156121df575060005482105b801561221d575060007c0100000000000000000000000000000000000000000000000000000000600460008581526020019081526020016000205416145b9050919050565b600033905090565b60006001905090565b6000808290508061224461222c565b116122ca576000548110156122c95760006004600083815260200190815260200160002054905060007c01000000000000000000000000000000000000000000000000000000008216036122c7575b600081036122bd576004600083600190039350838152602001908152602001600020549050612293565b80925050506122fc565b505b5b6040517fdf2d9b4200000000000000000000000000000000000000000000000000000000815260040160405180910390fd5b919050565b60008060006006600085815260200190815260200160002090508092508254915050915091565b600073ffffffffffffffffffffffffffffffffffffffff8316925073ffffffffffffffffffffffffffffffffffffffff821691508382148383141790509392505050565b50505050565b60008060e883901c905060e861238986868461284d565b62ffffff16901b9150509392505050565b600073ffffffffffffffffffffffffffffffffffffffff83169250814260a01b178317905092915050565b50505050565b6123d3612856565b73ffffffffffffffffffffffffffffffffffffffff166123f1611347565b73ffffffffffffffffffffffffffffffffffffffff1614612447576040517f08c379a000000000000000000000000000000000000000000000000000000000815260040161243e906143e2565b60405180910390fd5b565b6000600860009054906101000a900473ffffffffffffffffffffffffffffffffffffffff16905081600860006101000a81548173ffffffffffffffffffffffffffffffffffffffff021916908373ffffffffffffffffffffffffffffffffffffffff1602179055508173ffffffffffffffffffffffffffffffffffffffff168173ffffffffffffffffffffffffffffffffffffffff167f8be0079c531659141344cd1fd0a4f28419497f9722a3daafe3b4186f6b6457e060405160405180910390a35050565b600260095403612554576040517f08c379a000000000000000000000000000000000000000000000000000000000815260040161254b9061444e565b60405180910390fd5b6002600981905550565b61257882826040518060200160405280600081525061285e565b5050565b6001600981905550565b60008373ffffffffffffffffffffffffffffffffffffffff1663150b7a026125ac612224565b8786866040518563ffffffff1660e01b81526004016125ce94939291906144c3565b6020604051808303816000875af192505050801561260a57506040513d601f19601f820116820180604052508101906126079190614524565b60015b612683573d806000811461263a576040519150601f19603f3d011682016040523d82523d6000602084013e61263f565b606091505b50600081510361267b576040517fd1a57ed600000000000000000000000000000000000000000000000000000000815260040160405180910390fd5b805181602001fd5b63150b7a0260e01b7bffffffffffffffffffffffffffffffffffffffffffffffffffffffff1916817bffffffffffffffffffffffffffffffffffffffffffffffffffffffff191614915050949350505050565b6060600f80546126e590613668565b80601f016020809104026020016040519081016040528092919081815260200182805461271190613668565b801561275e5780601f106127335761010080835404028352916020019161275e565b820191906000526020600020905b81548152906001019060200180831161274157829003601f168201915b5050505050905090565b606060006001612777846128fb565b01905060008167ffffffffffffffff81111561279657612795613045565b5b6040519080825280601f01601f1916602001820160405280156127c85781602001600182028036833780820191505090505b509050600082602001820190505b60011561282b578080600190039150507f3031323334353637383961626364656600000000000000000000000000000000600a86061a8153600a858161281f5761281e614551565b5b049450600085036127d6575b819350505050919050565b6000826128438584612a4e565b1490509392505050565b60009392505050565b600033905090565b6128688383612aa4565b60008373ffffffffffffffffffffffffffffffffffffffff163b146128f657600080549050600083820390505b6128a86000868380600101945086612586565b6128de576040517fd1a57ed600000000000000000000000000000000000000000000000000000000815260040160405180910390fd5b8181106128955781600054146128f357600080fd5b50505b505050565b600080600090507a184f03e93ff9f4daa797ed6e38ed64bf6a1f0100000000000000008310612959577a184f03e93ff9f4daa797ed6e38ed64bf6a1f010000000000000000838161294f5761294e614551565b5b0492506040810190505b6d04ee2d6d415b85acef81000000008310612996576d04ee2d6d415b85acef8100000000838161298c5761298b614551565b5b0492506020810190505b662386f26fc1000083106129c557662386f26fc1000083816129bb576129ba614551565b5b0492506010810190505b6305f5e10083106129ee576305f5e10083816129e4576129e3614551565b5b0492506008810190505b6127108310612a13576127108381612a0957612a08614551565b5b0492506004810190505b60648310612a365760648381612a2c57612a2b614551565b5b0492506002810190505b600a8310612a45576001810190505b80915050919050565b60008082905060005b8451811015612a9957612a8482868381518110612a7757612a7661431f565b5b6020026020010151612c5f565b91508080612a919061434e565b915050612a57565b508091505092915050565b60008054905060008203612ae4576040517fb562e8dd00000000000000000000000000000000000000000000000000000000815260040160405180910390fd5b612af1600084838561236c565b600160406001901b178202600560008573ffffffffffffffffffffffffffffffffffffffff1673ffffffffffffffffffffffffffffffffffffffff16815260200190815260200160002060008282540192505081905550612b6883612b596000866000612372565b612b6285612c8a565b1761239a565b6004600083815260200190815260200160002081905550600080838301905073ffffffffffffffffffffffffffffffffffffffff85169150828260007fddf252ad1be2c89b69c2b068fc378daa952ba7f163c4a11628f55a4df523b3ef600080a4600183015b818114612c0957808360007fddf252ad1be2c89b69c2b068fc378daa952ba7f163c4a11628f55a4df523b3ef600080a4600181019050612bce565b5060008203612c44576040517f2e07630000000000000000000000000000000000000000000000000000000000815260040160405180910390fd5b806000819055505050612c5a60008483856123c5565b505050565b6000818310612c7757612c728284612c9a565b612c82565b612c818383612c9a565b5b905092915050565b60006001821460e11b9050919050565b600082600052816020526040600020905092915050565b6000604051905090565b600080fd5b600080fd5b60007fffffffff0000000000000000000000000000000000000000000000000000000082169050919050565b612cfa81612cc5565b8114612d0557600080fd5b50565b600081359050612d1781612cf1565b92915050565b600060208284031215612d3357612d32612cbb565b5b6000612d4184828501612d08565b91505092915050565b60008115159050919050565b612d5f81612d4a565b82525050565b6000602082019050612d7a6000830184612d56565b92915050565b600081519050919050565b600082825260208201905092915050565b60005b83811015612dba578082015181840152602081019050612d9f565b60008484015250505050565b6000601f19601f8301169050919050565b6000612de282612d80565b612dec8185612d8b565b9350612dfc818560208601612d9c565b612e0581612dc6565b840191505092915050565b60006020820190508181036000830152612e2a8184612dd7565b905092915050565b6000819050919050565b612e4581612e32565b8114612e5057600080fd5b50565b600081359050612e6281612e3c565b92915050565b600060208284031215612e7e57612e7d612cbb565b5b6000612e8c84828501612e53565b91505092915050565b600073ffffffffffffffffffffffffffffffffffffffff82169050919050565b6000612ec082612e95565b9050919050565b612ed081612eb5565b82525050565b6000602082019050612eeb6000830184612ec7565b92915050565b612efa81612eb5565b8114612f0557600080fd5b50565b600081359050612f1781612ef1565b92915050565b60008060408385031215612f3457612f33612cbb565b5b6000612f4285828601612f08565b9250506020612f5385828601612e53565b9150509250929050565b612f6681612e32565b82525050565b6000602082019050612f816000830184612f5d565b92915050565b600080600060608486031215612fa057612f9f612cbb565b5b6000612fae86828701612f08565b9350506020612fbf86828701612f08565b9250506040612fd086828701612e53565b9150509250925092565b6000819050919050565b612fed81612fda565b82525050565b60006020820190506130086000830184612fe4565b92915050565b60006020828403121561302457613023612cbb565b5b600061303284828501612f08565b91505092915050565b600080fd5b600080fd5b7f4e487b7100000000000000000000000000000000000000000000000000000000600052604160045260246000fd5b61307d82612dc6565b810181811067ffffffffffffffff8211171561309c5761309b613045565b5b80604052505050565b60006130af612cb1565b90506130bb8282613074565b919050565b600067ffffffffffffffff8211156130db576130da613045565b5b6130e482612dc6565b9050602081019050919050565b82818337600083830152505050565b600061311361310e846130c0565b6130a5565b90508281526020810184848401111561312f5761312e613040565b5b61313a8482856130f1565b509392505050565b600082601f8301126131575761315661303b565b5b8135613167848260208601613100565b91505092915050565b6000806040838503121561318757613186612cbb565b5b600083013567ffffffffffffffff8111156131a5576131a4612cc0565b5b6131b185828601613142565b925050602083013567ffffffffffffffff8111156131d2576131d1612cc0565b5b6131de85828601613142565b9150509250929050565b6131f181612fda565b81146131fc57600080fd5b50565b60008135905061320e816131e8565b92915050565b60006020828403121561322a57613229612cbb565b5b6000613238848285016131ff565b91505092915050565b61324a81612d4a565b811461325557600080fd5b50565b60008135905061326781613241565b92915050565b6000806040838503121561328457613283612cbb565b5b600061329285828601612f08565b92505060206132a385828601613258565b9150509250929050565b600067ffffffffffffffff8211156132c8576132c7613045565b5b6132d182612dc6565b9050602081019050919050565b60006132f16132ec846132ad565b6130a5565b90508281526020810184848401111561330d5761330c613040565b5b6133188482856130f1565b509392505050565b600082601f8301126133355761333461303b565b5b81356133458482602086016132de565b91505092915050565b6000806000806080858703121561336857613367612cbb565b5b600061337687828801612f08565b945050602061338787828801612f08565b935050604061339887828801612e53565b925050606085013567ffffffffffffffff8111156133b9576133b8612cc0565b5b6133c587828801613320565b91505092959194509250565b600080fd5b600080fd5b60008083601f8401126133f1576133f061303b565b5b8235905067ffffffffffffffff81111561340e5761340d6133d1565b5b60208301915083602082028301111561342a576134296133d6565b5b9250929050565b60008060006040848603121561344a57613449612cbb565b5b600061345886828701612e53565b935050602084013567ffffffffffffffff81111561347957613478612cc0565b5b613485868287016133db565b92509250509250925092565b600080604083850312156134a8576134a7612cbb565b5b60006134b685828601612f08565b92505060206134c785828601612f08565b9150509250929050565b6000602082840312156134e7576134e6612cbb565b5b600082013567ffffffffffffffff81111561350557613504612cc0565b5b61351184828501613142565b91505092915050565b600067ffffffffffffffff82111561353557613534613045565b5b602082029050602081019050919050565b60006135596135548461351a565b6130a5565b9050808382526020820190506020840283018581111561357c5761357b6133d6565b5b835b818110156135a557806135918882612f08565b84526020840193505060208101905061357e565b5050509392505050565b600082601f8301126135c4576135c361303b565b5b81356135d4848260208601613546565b91505092915050565b600080604083850312156135f4576135f3612cbb565b5b600061360285828601612e53565b925050602083013567ffffffffffffffff81111561362357613622612cc0565b5b61362f858286016135af565b9150509250929050565b7f4e487b7100000000000000000000000000000000000000000000000000000000600052602260045260246000fd5b6000600282049050600182168061368057607f821691505b60208210810361369357613692613639565b5b50919050565b60008190508160005260206000209050919050565b60006020601f8301049050919050565b600082821b905092915050565b6000600883026136fb7fffffffffffffffffffffffffffffffffffffffffffffffffffffffffffffffff826136be565b61370586836136be565b95508019841693508086168417925050509392505050565b6000819050919050565b600061374261373d61373884612e32565b61371d565b612e32565b9050919050565b6000819050919050565b61375c83613727565b61377061376882613749565b8484546136cb565b825550505050565b600090565b613785613778565b613790818484613753565b505050565b5b818110156137b4576137a960008261377d565b600181019050613796565b5050565b601f8211156137f9576137ca81613699565b6137d3846136ae565b810160208510156137e2578190505b6137f66137ee856136ae565b830182613795565b50505b505050565b600082821c905092915050565b600061381c600019846008026137fe565b1980831691505092915050565b6000613835838361380b565b9150826002028217905092915050565b61384e82612d80565b67ffffffffffffffff81111561386757613866613045565b5b6138718254613668565b61387c8282856137b8565b600060209050601f8311600181146138af576000841561389d578287015190505b6138a78582613829565b86555061390f565b601f1984166138bd86613699565b60005b828110156138e5578489015182556001820191506020850194506020810190506138c0565b8683101561390257848901516138fe601f89168261380b565b8355505b6001600288020188555050505b505050505050565b7f4e6f20436f6e74726163747320416c6c6f776564000000000000000000000000600082015250565b600061394d601483612d8b565b915061395882613917565b602082019050919050565b6000602082019050818103600083015261397c81613940565b9050919050565b7f436f6e7472616374204d696e74696e6720506175736564000000000000000000600082015250565b60006139b9601783612d8b565b91506139c482613983565b602082019050919050565b600060208201905081810360008301526139e8816139ac565b9050919050565b7f3a2043616e6e6f74204d696e7420447572696e672057686974656c697374205360008201527f616c650000000000000000000000000000000000000000000000000000000000602082015250565b6000613a4b602383612d8b565b9150613a56826139ef565b604082019050919050565b60006020820190508181036000830152613a7a81613a3e565b9050919050565b7f4578636565647320706572205472616e73616374696f6e204c696d6974000000600082015250565b6000613ab7601d83612d8b565b9150613ac282613a81565b602082019050919050565b60006020820190508181036000830152613ae681613aaa565b9050919050565b7f4e487b7100000000000000000000000000000000000000000000000000000000600052601160045260246000fd5b6000613b2782612e32565b9150613b3283612e32565b9250828202613b4081612e32565b91508282048414831517613b5757613b56613aed565b5b5092915050565b7f496e73756666696369656e742046756e64000000000000000000000000000000600082015250565b6000613b94601183612d8b565b9150613b9f82613b5e565b602082019050919050565b60006020820190508181036000830152613bc381613b87565b9050919050565b6000613bd582612e32565b9150613be083612e32565b9250828201905080821115613bf857613bf7613aed565b5b92915050565b7f45786365656473204d6178204d696e74204c696d697400000000000000000000600082015250565b6000613c34601683612d8b565b9150613c3f82613bfe565b602082019050919050565b60006020820190508181036000830152613c6381613c27565b9050919050565b7f3a204e6f206d6f7265204e46547320746f206d696e742c64656372656173652060008201527f746865207175616e74697479206f7220636865636b206f7574204f70656e536560208201527f612e000000000000000000000000000000000000000000000000000000000000604082015250565b6000613cec604283612d8b565b9150613cf782613c6a565b606082019050919050565b60006020820190508181036000830152613d1b81613cdf565b9050919050565b600081905092915050565b50565b6000613d3d600083613d22565b9150613d4882613d2d565b600082019050919050565b6000613d5e82613d30565b9150819050919050565b7f5472616e73666572206661696c65642e00000000000000000000000000000000600082015250565b6000613d9e601083612d8b565b9150613da982613d68565b602082019050919050565b60006020820190508181036000830152613dcd81613d91565b9050919050565b7f4552433732314d657461646174613a2055524920717565727920666f72206e6f60008201527f6e6578697374656e7420746f6b656e0000000000000000000000000000000000602082015250565b6000613e30602f83612d8b565b9150613e3b82613dd4565b604082019050919050565b60006020820190508181036000830152613e5f81613e23565b9050919050565b600081905092915050565b60008154613e7e81613668565b613e888186613e66565b94506001821660008114613ea35760018114613eb857613eeb565b60ff1983168652811515820286019350613eeb565b613ec185613699565b60005b83811015613ee357815481890152600182019150602081019050613ec4565b838801955050505b50505092915050565b6000613eff82612d80565b613f098185613e66565b9350613f19818560208601612d9c565b80840191505092915050565b6000613f318286613e71565b9150613f3d8285613ef4565b9150613f498284613e71565b9150819050949350505050565b7f3a2043616e6e6f74204d696e7420447572696e6720526567756c61722053616c60008201527f6500000000000000000000000000000000000000000000000000000000000000602082015250565b6000613fb2602183612d8b565b9150613fbd82613f56565b604082019050919050565b60006020820190508181036000830152613fe181613fa5565b9050919050565b7f457863656564732050726573616c65204c696d69740000000000000000000000600082015250565b600061401e601583612d8b565b915061402982613fe8565b602082019050919050565b6000602082019050818103600083015261404d81614011565b9050919050565b7f596f75206861766520616c7265616479206d696e74656420746865206d61782060008201527f616c6c6f77656400000000000000000000000000000000000000000000000000602082015250565b60006140b0602783612d8b565b91506140bb82614054565b604082019050919050565b600060208201905081810360008301526140df816140a3565b9050919050565b60008160601b9050919050565b60006140fe826140e6565b9050919050565b6000614110826140f3565b9050919050565b61412861412382612eb5565b614105565b82525050565b600061413a8284614117565b60148201915081905092915050565b7f596f7520617265204e6f742077686974656c6973746564000000000000000000600082015250565b600061417f601783612d8b565b915061418a82614149565b602082019050919050565b600060208201905081810360008301526141ae81614172565b9050919050565b7f4f776e61626c653a206e6577206f776e657220697320746865207a65726f206160008201527f6464726573730000000000000000000000000000000000000000000000000000602082015250565b6000614211602683612d8b565b915061421c826141b5565b604082019050919050565b6000602082019050818103600083015261424081614204565b9050919050565b7f41697264726f702045786365656473204d6178537570706c7900000000000000600082015250565b600061427d601983612d8b565b915061428882614247565b602082019050919050565b600060208201905081810360008301526142ac81614270565b9050919050565b7f41697264726f70204578636565647320526573657276656420537570706c7900600082015250565b60006142e9601f83612d8b565b91506142f4826142b3565b602082019050919050565b60006020820190508181036000830152614318816142dc565b9050919050565b7f4e487b7100000000000000000000000000000000000000000000000000000000600052603260045260246000fd5b600061435982612e32565b91507fffffffffffffffffffffffffffffffffffffffffffffffffffffffffffffffff820361438b5761438a613aed565b5b600182019050919050565b7f4f776e61626c653a2063616c6c6572206973206e6f7420746865206f776e6572600082015250565b60006143cc602083612d8b565b91506143d782614396565b602082019050919050565b600060208201905081810360008301526143fb816143bf565b9050919050565b7f5265656e7472616e637947756172643a207265656e7472616e742063616c6c00600082015250565b6000614438601f83612d8b565b915061444382614402565b602082019050919050565b600060208201905081810360008301526144678161442b565b9050919050565b600081519050919050565b600082825260208201905092915050565b60006144958261446e565b61449f8185614479565b93506144af818560208601612d9c565b6144b881612dc6565b840191505092915050565b60006080820190506144d86000830187612ec7565b6144e56020830186612ec7565b6144f26040830185612f5d565b8181036060830152614504818461448a565b905095945050505050565b60008151905061451e81612cf1565b92915050565b60006020828403121561453a57614539612cbb565b5b60006145488482850161450f565b91505092915050565b7f4e487b7100000000000000000000000000000000000000000000000000000000600052601260045260246000fdfea264697066735822122036925edea3b5bb120ca00f83673dd0642f888be0e391dc2a7949b8341b05198664736f6c63430008120033",
  "linkReferences": {},
  "deployedLinkReferences": {}
}